{"abi":[{"type":"constructor","inputs":[{"name":"_vrfCoordinator","type":"address","internalType":"address"},{"name":"_keyHash","type":"bytes32","internalType":"bytes32"},{"name":"_subscriptionId","type":"uint64","internalType":"uint64"},{"name":"_houseToken","type":"address","internalType":"address"}],"stateMutability":"nonpayable"},{"type":"receive","stateMutability":"payable"},{"type":"function","name":"bets","inputs":[{"name":"","type":"uint256","internalType":"uint256"}],"outputs":[{"name":"player","type":"address","internalType":"address"},{"name":"amount","type":"uint256","internalType":"uint256"},{"name":"choice","type":"uint8","internalType":"uint8"},{"name":"fulfilled","type":"bool","internalType":"bool"}],"stateMutability":"view"},{"type":"function","name":"callbackGasLimit","inputs":[],"outputs":[{"name":"","type":"uint32","internalType":"uint32"}],"stateMutability":"view"},{"type":"function","name":"getBet","inputs":[{"name":"requestId","type":"uint256","internalType":"uint256"}],"outputs":[{"name":"","type":"tuple","internalType":"struct Casino.Bet","components":[{"name":"player","type":"address","internalType":"address"},{"name":"amount","type":"uint256","internalType":"uint256"},{"name":"choice","type":"uint8","internalType":"uint8"},{"name":"fulfilled","type":"bool","internalType":"bool"}]}],"stateMutability":"view"},{"type":"function","name":"houseToken","inputs":[],"outputs":[{"name":"","type":"address","internalType":"contract HouseToken"}],"stateMutability":"view"},{"type":"function","name":"keyHash","inputs":[],"outputs":[{"name":"","type":"bytes32","internalType":"bytes32"}],"stateMutability":"view"},{"type":"function","name":"maxBet","inputs":[],"outputs":[{"name":"","type":"uint256","internalType":"uint256"}],"stateMutability":"view"},{"type":"function","name":"minBet","inputs":[],"outputs":[{"name":"","type":"uint256","internalType":"uint256"}],"stateMutability":"view"},{"type":"function","name":"mintRate","inputs":[],"outputs":[{"name":"","type":"uint256","internalType":"uint256"}],"stateMutability":"view"},{"type":"function","name":"numWords","inputs":[],"outputs":[{"name":"","type":"uint32","internalType":"uint32"}],"stateMutability":"view"},{"type":"function","name":"owner","inputs":[],"outputs":[{"name":"","type":"address","internalType":"address"}],"stateMutability":"view"},{"type":"function","name":"pause","inputs":[],"outputs":[],"stateMutability":"nonpayable"},{"type":"function","name":"paused","inputs":[],"outputs":[{"name":"","type":"bool","internalType":"bool"}],"stateMutability":"view"},{"type":"function","name":"placeBet","inputs":[{"name":"choice","type":"uint8","internalType":"uint8"}],"outputs":[],"stateMutability":"payable"},{"type":"function","name":"rawFulfillRandomWords","inputs":[{"name":"requestId","type":"uint256","internalType":"uint256"},{"name":"randomWords","type":"uint256[]","internalType":"uint256[]"}],"outputs":[],"stateMutability":"nonpayable"},{"type":"function","name":"renounceOwnership","inputs":[],"outputs":[],"stateMutability":"nonpayable"},{"type":"function","name":"requestConfirmations","inputs":[],"outputs":[{"name":"","type":"uint16","internalType":"uint16"}],"stateMutability":"view"},{"type":"function","name":"setBetLimits","inputs":[{"name":"_min","type":"uint256","internalType":"uint256"},{"name":"_max","type":"uint256","internalType":"uint256"}],"outputs":[],"stateMutability":"nonpayable"},{"type":"function","name":"setMintRate","inputs":[{"name":"_rate","type":"uint256","internalType":"uint256"}],"outputs":[],"stateMutability":"nonpayable"},{"type":"function","name":"subscriptionId","inputs":[],"outputs":[{"name":"","type":"uint64","internalType":"uint64"}],"stateMutability":"view"},{"type":"function","name":"testFulfillRandomWords","inputs":[{"name":"requestId","type":"uint256","internalType":"uint256"},{"name":"randomWords","type":"uint256[]","internalType":"uint256[]"}],"outputs":[],"stateMutability":"nonpayable"},{"type":"function","name":"transferOwnership","inputs":[{"name":"newOwner","type":"address","internalType":"address"}],"outputs":[],"stateMutability":"nonpayable"},{"type":"function","name":"unpause","inputs":[],"outputs":[],"stateMutability":"nonpayable"},{"type":"function","name":"vrfCoordinator","inputs":[],"outputs":[{"name":"","type":"address","internalType":"contract VRFCoordinatorV2Interface"}],"stateMutability":"view"},{"type":"function","name":"withdraw","inputs":[],"outputs":[],"stateMutability":"nonpayable"},{"type":"event","name":"BetPlaced","inputs":[{"name":"requestId","type":"uint256","indexed":true,"internalType":"uint256"},{"name":"player","type":"address","indexed":true,"internalType":"address"},{"name":"amount","type":"uint256","indexed":false,"internalType":"uint256"},{"name":"choice","type":"uint8","indexed":false,"internalType":"uint8"}],"anonymous":false},{"type":"event","name":"BetResolved","inputs":[{"name":"requestId","type":"uint256","indexed":true,"internalType":"uint256"},{"name":"player","type":"address","indexed":true,"internalType":"address"},{"name":"win","type":"bool","indexed":false,"internalType":"bool"},{"name":"payout","type":"uint256","indexed":false,"internalType":"uint256"},{"name":"bonus","type":"uint256","indexed":false,"internalType":"uint256"}],"anonymous":false},{"type":"event","name":"OwnershipTransferred","inputs":[{"name":"previousOwner","type":"address","indexed":true,"internalType":"address"},{"name":"newOwner","type":"address","indexed":true,"internalType":"address"}],"anonymous":false},{"type":"event","name":"Paused","inputs":[{"name":"account","type":"address","indexed":false,"internalType":"address"}],"anonymous":false},{"type":"event","name":"Unpaused","inputs":[{"name":"account","type":"address","indexed":false,"internalType":"address"}],"anonymous":false},{"type":"error","name":"OnlyCoordinatorCanFulfill","inputs":[{"name":"have","type":"address","internalType":"address"},{"name":"want","type":"address","internalType":"address"}]}],"bytecode":{"object":"0x60a0604052620186a060045f6101000a81548163ffffffff021916908363ffffffff1602179055506001600555662386f26fc10000600655678ac7230489e8000060075534801561004e575f5ffd5b5060405161238438038061238483398181016040528101906100709190610332565b838073ffffffffffffffffffffffffffffffffffffffff1660808173ffffffffffffffffffffffffffffffffffffffff16815250505060015f819055505f60015f6101000a81548160ff0219169083151502179055506100e26100d761019b60201b60201c565b6101a260201b60201c565b8360025f6101000a81548173ffffffffffffffffffffffffffffffffffffffff021916908373ffffffffffffffffffffffffffffffffffffffff1602179055508260038190555081600260146101000a81548167ffffffffffffffff021916908367ffffffffffffffff160217905550806004806101000a81548173ffffffffffffffffffffffffffffffffffffffff021916908373ffffffffffffffffffffffffffffffffffffffff16021790555050505050610396565b5f33905090565b5f60018054906101000a900473ffffffffffffffffffffffffffffffffffffffff169050816001806101000a81548173ffffffffffffffffffffffffffffffffffffffff021916908373ffffffffffffffffffffffffffffffffffffffff1602179055508173ffffffffffffffffffffffffffffffffffffffff168173ffffffffffffffffffffffffffffffffffffffff167f8be0079c531659141344cd1fd0a4f28419497f9722a3daafe3b4186f6b6457e060405160405180910390a35050565b5f5ffd5b5f73ffffffffffffffffffffffffffffffffffffffff82169050919050565b5f61029182610268565b9050919050565b6102a181610287565b81146102ab575f5ffd5b50565b5f815190506102bc81610298565b92915050565b5f819050919050565b6102d4816102c2565b81146102de575f5ffd5b50565b5f815190506102ef816102cb565b92915050565b5f67ffffffffffffffff82169050919050565b610311816102f5565b811461031b575f5ffd5b50565b5f8151905061032c81610308565b92915050565b5f5f5f5f6080858703121561034a57610349610264565b5b5f610357878288016102ae565b9450506020610368878288016102e1565b93505060406103798782880161031e565b925050606061038a878288016102ae565b91505092959194509250565b608051611fcf6103b55f395f818161068101526106d50152611fcf5ff3fe60806040526004361061014e575f3560e01c8063715018a6116100b55780639619367d1161006e5780639619367d14610410578063a3e56fa81461043a578063b0fb162f14610464578063ca0dcf161461048e578063dbe2193f146104b8578063f2fde38b146104e057610155565b8063715018a61461033e5780637687dd49146103545780637ccfd7fc1461037c5780638456cb59146103a65780638da5cb5b146103bc578063907a37c6146103e657610155565b80632e5b2168116101075780632e5b2168146102785780633ccfd60b146102a25780633f4ba83a146102b857806343046844146102ce5780635c975abb146102ea57806361728f391461031457610155565b806302c4d72b14610159578063061e494f1461018157806309c1ba2e146101bd5780631fe543e3146101e757806322af00fa1461020f57806324f746971461024e57610155565b3661015557005b5f5ffd5b348015610164575f5ffd5b5061017f600480360381019061017a91906113d2565b610508565b005b34801561018c575f5ffd5b506101a760048036038101906101a2919061142c565b6105a5565b6040516101b4919061152d565b60405180910390f35b3480156101c8575f5ffd5b506101d1610665565b6040516101de9190611568565b60405180910390f35b3480156101f2575f5ffd5b5061020d600480360381019061020891906113d2565b61067f565b005b34801561021a575f5ffd5b506102356004803603810190610230919061142c565b61073f565b60405161024594939291906115bd565b60405180910390f35b348015610259575f5ffd5b506102626107a3565b60405161026f919061161e565b60405180910390f35b348015610283575f5ffd5b5061028c6107b8565b6040516102999190611637565b60405180910390f35b3480156102ad575f5ffd5b506102b66107be565b005b3480156102c3575f5ffd5b506102cc610813565b005b6102e860048036038101906102e3919061167a565b610825565b005b3480156102f5575f5ffd5b506102fe610ae6565b60405161030b91906116a5565b60405180910390f35b34801561031f575f5ffd5b50610328610afb565b60405161033591906116d6565b60405180910390f35b348015610349575f5ffd5b50610352610b01565b005b34801561035f575f5ffd5b5061037a600480360381019061037591906116ef565b610b14565b005b348015610387575f5ffd5b50610390610b70565b60405161039d919061161e565b60405180910390f35b3480156103b1575f5ffd5b506103ba610b75565b005b3480156103c7575f5ffd5b506103d0610b87565b6040516103dd919061172d565b60405180910390f35b3480156103f1575f5ffd5b506103fa610bae565b60405161040791906117a1565b60405180910390f35b34801561041b575f5ffd5b50610424610bd2565b6040516104319190611637565b60405180910390f35b348015610445575f5ffd5b5061044e610bd8565b60405161045b91906117da565b60405180910390f35b34801561046f575f5ffd5b50610478610bfd565b604051610485919061180f565b60405180910390f35b348015610499575f5ffd5b506104a2610c02565b6040516104af9190611637565b60405180910390f35b3480156104c3575f5ffd5b506104de60048036038101906104d9919061142c565b610c08565b005b3480156104eb575f5ffd5b5061050660048036038101906105019190611852565b610c1a565b005b60025f9054906101000a900473ffffffffffffffffffffffffffffffffffffffff1673ffffffffffffffffffffffffffffffffffffffff163373ffffffffffffffffffffffffffffffffffffffff1614610597576040517f08c379a000000000000000000000000000000000000000000000000000000000815260040161058e906118d7565b60405180910390fd5b6105a18282610c9c565b5050565b6105ad6111ff565b60085f8381526020019081526020015f206040518060800160405290815f82015f9054906101000a900473ffffffffffffffffffffffffffffffffffffffff1673ffffffffffffffffffffffffffffffffffffffff1673ffffffffffffffffffffffffffffffffffffffff16815260200160018201548152602001600282015f9054906101000a900460ff1660ff1660ff1681526020016002820160019054906101000a900460ff1615151515815250509050919050565b600260149054906101000a900467ffffffffffffffff1681565b7f000000000000000000000000000000000000000000000000000000000000000073ffffffffffffffffffffffffffffffffffffffff163373ffffffffffffffffffffffffffffffffffffffff161461073157337f00000000000000000000000000000000000000000000000000000000000000006040517f1cf993f40000000000000000000000000000000000000000000000000000000081526004016107289291906118f5565b60405180910390fd5b61073b8282610c9c565b5050565b6008602052805f5260405f205f91509050805f015f9054906101000a900473ffffffffffffffffffffffffffffffffffffffff1690806001015490806002015f9054906101000a900460ff16908060020160019054906101000a900460ff16905084565b60045f9054906101000a900463ffffffff1681565b60075481565b6107c6610f0d565b6107ce610b87565b73ffffffffffffffffffffffffffffffffffffffff166108fc4790811502906040515f60405180830381858888f19350505050158015610810573d5f5f3e3d5ffd5b50565b61081b610f0d565b610823610f8b565b565b61082d610fec565b610835611036565b600654341015801561084957506007543411155b610888576040517f08c379a000000000000000000000000000000000000000000000000000000000815260040161087f90611966565b60405180910390fd5b5f8160ff16148061089c575060018160ff16145b6108db576040517f08c379a00000000000000000000000000000000000000000000000000000000081526004016108d2906119ce565b60405180910390fd5b5f60025f9054906101000a900473ffffffffffffffffffffffffffffffffffffffff1673ffffffffffffffffffffffffffffffffffffffff16635d3b1d30600354600260149054906101000a900467ffffffffffffffff16600360045f9054906101000a900463ffffffff1660016040518663ffffffff1660e01b81526004016109699594939291906119ec565b6020604051808303815f875af1158015610985573d5f5f3e3d5ffd5b505050506040513d601f19601f820116820180604052508101906109a99190611a51565b905060405180608001604052803373ffffffffffffffffffffffffffffffffffffffff1681526020013481526020018360ff1681526020015f151581525060085f8381526020019081526020015f205f820151815f015f6101000a81548173ffffffffffffffffffffffffffffffffffffffff021916908373ffffffffffffffffffffffffffffffffffffffff160217905550602082015181600101556040820151816002015f6101000a81548160ff021916908360ff16021790555060608201518160020160016101000a81548160ff0219169083151502179055509050503373ffffffffffffffffffffffffffffffffffffffff16817fe90186097616cbeb30ffc786b44501e1362f5e0a316a96c5ab82a0551f9d2f053485604051610ad2929190611a7c565b60405180910390a350610ae3611083565b50565b5f60015f9054906101000a900460ff16905090565b60035481565b610b09610f0d565b610b125f61108c565b565b610b1c610f0d565b808210610b5e576040517f08c379a0000000000000000000000000000000000000000000000000000000008152600401610b5590611aed565b60405180910390fd5b81600681905550806007819055505050565b600181565b610b7d610f0d565b610b8561114e565b565b5f60018054906101000a900473ffffffffffffffffffffffffffffffffffffffff16905090565b60048054906101000a900473ffffffffffffffffffffffffffffffffffffffff1681565b60065481565b60025f9054906101000a900473ffffffffffffffffffffffffffffffffffffffff1681565b600381565b60055481565b610c10610f0d565b8060058190555050565b610c22610f0d565b5f73ffffffffffffffffffffffffffffffffffffffff168173ffffffffffffffffffffffffffffffffffffffff1603610c90576040517f08c379a0000000000000000000000000000000000000000000000000000000008152600401610c8790611b7b565b60405180910390fd5b610c998161108c565b50565b5f60085f8481526020019081526020015f2090508060020160019054906101000a900460ff1615610d02576040517f08c379a0000000000000000000000000000000000000000000000000000000008152600401610cf990611be3565b60405180910390fd5b806002015f9054906101000a900460ff1660ff166002835f81518110610d2b57610d2a611c01565b5b6020026020010151610d3d9190611c5b565b03610eeb575f60028260010154610d549190611cb8565b90505f825f015f9054906101000a900473ffffffffffffffffffffffffffffffffffffffff1673ffffffffffffffffffffffffffffffffffffffff1682604051610d9d90611d26565b5f6040518083038185875af1925050503d805f8114610dd7576040519150601f19603f3d011682016040523d82523d5f602084013e610ddc565b606091505b5050905080610e20576040517f08c379a0000000000000000000000000000000000000000000000000000000008152600401610e1790611d84565b60405180910390fd5b5f606460055484610e319190611cb8565b610e3b9190611da2565b905060048054906101000a900473ffffffffffffffffffffffffffffffffffffffff1673ffffffffffffffffffffffffffffffffffffffff166340c10f19855f015f9054906101000a900473ffffffffffffffffffffffffffffffffffffffff16836040518363ffffffff1660e01b8152600401610eba929190611dd2565b5f604051808303815f87803b158015610ed1575f5ffd5b505af1158015610ee3573d5f5f3e3d5ffd5b505050505050505b60018160020160016101000a81548160ff021916908315150217905550505050565b610f156111af565b73ffffffffffffffffffffffffffffffffffffffff16610f33610b87565b73ffffffffffffffffffffffffffffffffffffffff1614610f89576040517f08c379a0000000000000000000000000000000000000000000000000000000008152600401610f8090611e43565b60405180910390fd5b565b610f936111b6565b5f60015f6101000a81548160ff0219169083151502179055507f5db9ee0a495bf2e6ff9c91a7834c1ba4fdd244a5e8aa4e537bd38aeae4b073aa610fd56111af565b604051610fe2919061172d565b60405180910390a1565b610ff4610ae6565b15611034576040517f08c379a000000000000000000000000000000000000000000000000000000000815260040161102b90611eab565b60405180910390fd5b565b60025f540361107a576040517f08c379a000000000000000000000000000000000000000000000000000000000815260040161107190611f13565b60405180910390fd5b60025f81905550565b60015f81905550565b5f60018054906101000a900473ffffffffffffffffffffffffffffffffffffffff169050816001806101000a81548173ffffffffffffffffffffffffffffffffffffffff021916908373ffffffffffffffffffffffffffffffffffffffff1602179055508173ffffffffffffffffffffffffffffffffffffffff168173ffffffffffffffffffffffffffffffffffffffff167f8be0079c531659141344cd1fd0a4f28419497f9722a3daafe3b4186f6b6457e060405160405180910390a35050565b611156610fec565b6001805f6101000a81548160ff0219169083151502179055507f62e78cea01bee320cd4e420270b5ea74000d11b0c9f74754ebdbfc544b05a2586111986111af565b6040516111a5919061172d565b60405180910390a1565b5f33905090565b6111be610ae6565b6111fd576040517f08c379a00000000000000000000000000000000000000000000000000000000081526004016111f490611f7b565b60405180910390fd5b565b60405180608001604052805f73ffffffffffffffffffffffffffffffffffffffff1681526020015f81526020015f60ff1681526020015f151581525090565b5f604051905090565b5f5ffd5b5f5ffd5b5f819050919050565b6112618161124f565b811461126b575f5ffd5b50565b5f8135905061127c81611258565b92915050565b5f5ffd5b5f601f19601f8301169050919050565b7f4e487b71000000000000000000000000000000000000000000000000000000005f52604160045260245ffd5b6112cc82611286565b810181811067ffffffffffffffff821117156112eb576112ea611296565b5b80604052505050565b5f6112fd61123e565b905061130982826112c3565b919050565b5f67ffffffffffffffff82111561132857611327611296565b5b602082029050602081019050919050565b5f5ffd5b5f61134f61134a8461130e565b6112f4565b9050808382526020820190506020840283018581111561137257611371611339565b5b835b8181101561139b5780611387888261126e565b845260208401935050602081019050611374565b5050509392505050565b5f82601f8301126113b9576113b8611282565b5b81356113c984826020860161133d565b91505092915050565b5f5f604083850312156113e8576113e7611247565b5b5f6113f58582860161126e565b925050602083013567ffffffffffffffff8111156114165761141561124b565b5b611422858286016113a5565b9150509250929050565b5f6020828403121561144157611440611247565b5b5f61144e8482850161126e565b91505092915050565b5f73ffffffffffffffffffffffffffffffffffffffff82169050919050565b5f61148082611457565b9050919050565b61149081611476565b82525050565b61149f8161124f565b82525050565b5f60ff82169050919050565b6114ba816114a5565b82525050565b5f8115159050919050565b6114d4816114c0565b82525050565b608082015f8201516114ee5f850182611487565b5060208201516115016020850182611496565b50604082015161151460408501826114b1565b50606082015161152760608501826114cb565b50505050565b5f6080820190506115405f8301846114da565b92915050565b5f67ffffffffffffffff82169050919050565b61156281611546565b82525050565b5f60208201905061157b5f830184611559565b92915050565b61158a81611476565b82525050565b6115998161124f565b82525050565b6115a8816114a5565b82525050565b6115b7816114c0565b82525050565b5f6080820190506115d05f830187611581565b6115dd6020830186611590565b6115ea604083018561159f565b6115f760608301846115ae565b95945050505050565b5f63ffffffff82169050919050565b61161881611600565b82525050565b5f6020820190506116315f83018461160f565b92915050565b5f60208201905061164a5f830184611590565b92915050565b611659816114a5565b8114611663575f5ffd5b50565b5f8135905061167481611650565b92915050565b5f6020828403121561168f5761168e611247565b5b5f61169c84828501611666565b91505092915050565b5f6020820190506116b85f8301846115ae565b92915050565b5f819050919050565b6116d0816116be565b82525050565b5f6020820190506116e95f8301846116c7565b92915050565b5f5f6040838503121561170557611704611247565b5b5f6117128582860161126e565b92505060206117238582860161126e565b9150509250929050565b5f6020820190506117405f830184611581565b92915050565b5f819050919050565b5f61176961176461175f84611457565b611746565b611457565b9050919050565b5f61177a8261174f565b9050919050565b5f61178b82611770565b9050919050565b61179b81611781565b82525050565b5f6020820190506117b45f830184611792565b92915050565b5f6117c482611770565b9050919050565b6117d4816117ba565b82525050565b5f6020820190506117ed5f8301846117cb565b92915050565b5f61ffff82169050919050565b611809816117f3565b82525050565b5f6020820190506118225f830184611800565b92915050565b61183181611476565b811461183b575f5ffd5b50565b5f8135905061184c81611828565b92915050565b5f6020828403121561186757611866611247565b5b5f6118748482850161183e565b91505092915050565b5f82825260208201905092915050565b7f4f6e6c792056524620636f6f7264696e61746f720000000000000000000000005f82015250565b5f6118c160148361187d565b91506118cc8261188d565b602082019050919050565b5f6020820190508181035f8301526118ee816118b5565b9050919050565b5f6040820190506119085f830185611581565b6119156020830184611581565b9392505050565b7f496e76616c69642062657420616d6f756e7400000000000000000000000000005f82015250565b5f61195060128361187d565b915061195b8261191c565b602082019050919050565b5f6020820190508181035f83015261197d81611944565b9050919050565b7f43686f696365206d7573742062652030206f72203100000000000000000000005f82015250565b5f6119b860158361187d565b91506119c382611984565b602082019050919050565b5f6020820190508181035f8301526119e5816119ac565b9050919050565b5f60a0820190506119ff5f8301886116c7565b611a0c6020830187611559565b611a196040830186611800565b611a26606083018561160f565b611a33608083018461160f565b9695505050505050565b5f81519050611a4b81611258565b92915050565b5f60208284031215611a6657611a65611247565b5b5f611a7384828501611a3d565b91505092915050565b5f604082019050611a8f5f830185611590565b611a9c602083018461159f565b9392505050565b7f496e76616c6964206c696d6974730000000000000000000000000000000000005f82015250565b5f611ad7600e8361187d565b9150611ae282611aa3565b602082019050919050565b5f6020820190508181035f830152611b0481611acb565b9050919050565b7f4f776e61626c653a206e6577206f776e657220697320746865207a65726f20615f8201527f6464726573730000000000000000000000000000000000000000000000000000602082015250565b5f611b6560268361187d565b9150611b7082611b0b565b604082019050919050565b5f6020820190508181035f830152611b9281611b59565b9050919050565b7f416c72656164792066756c66696c6c65640000000000000000000000000000005f82015250565b5f611bcd60118361187d565b9150611bd882611b99565b602082019050919050565b5f6020820190508181035f830152611bfa81611bc1565b9050919050565b7f4e487b71000000000000000000000000000000000000000000000000000000005f52603260045260245ffd5b7f4e487b71000000000000000000000000000000000000000000000000000000005f52601260045260245ffd5b5f611c658261124f565b9150611c708361124f565b925082611c8057611c7f611c2e565b5b828206905092915050565b7f4e487b71000000000000000000000000000000000000000000000000000000005f52601160045260245ffd5b5f611cc28261124f565b9150611ccd8361124f565b9250828202611cdb8161124f565b91508282048414831517611cf257611cf1611c8b565b5b5092915050565b5f81905092915050565b50565b5f611d115f83611cf9565b9150611d1c82611d03565b5f82019050919050565b5f611d3082611d06565b9150819050919050565b7f5472616e73666572206661696c656400000000000000000000000000000000005f82015250565b5f611d6e600f8361187d565b9150611d7982611d3a565b602082019050919050565b5f6020820190508181035f830152611d9b81611d62565b9050919050565b5f611dac8261124f565b9150611db78361124f565b925082611dc757611dc6611c2e565b5b828204905092915050565b5f604082019050611de55f830185611581565b611df26020830184611590565b9392505050565b7f4f776e61626c653a2063616c6c6572206973206e6f7420746865206f776e65725f82015250565b5f611e2d60208361187d565b9150611e3882611df9565b602082019050919050565b5f6020820190508181035f830152611e5a81611e21565b9050919050565b7f5061757361626c653a20706175736564000000000000000000000000000000005f82015250565b5f611e9560108361187d565b9150611ea082611e61565b602082019050919050565b5f6020820190508181035f830152611ec281611e89565b9050919050565b7f5265656e7472616e637947756172643a207265656e7472616e742063616c6c005f82015250565b5f611efd601f8361187d565b9150611f0882611ec9565b602082019050919050565b5f6020820190508181035f830152611f2a81611ef1565b9050919050565b7f5061757361626c653a206e6f74207061757365640000000000000000000000005f82015250565b5f611f6560148361187d565b9150611f7082611f31565b602082019050919050565b5f6020820190508181035f830152611f9281611f59565b905091905056fea2646970667358221220f280300099c33b7688d506966f644b8cfe7568bbc0ab0a481fd6e4792cc0de2c64736f6c634300081e0033","linkReferences":{}},"methodIdentifiers":{"bets(uint256)":"22af00fa","callbackGasLimit()":"24f74697","getBet(uint256)":"061e494f","houseToken()":"907a37c6","keyHash()":"61728f39","maxBet()":"2e5b2168","minBet()":"9619367d","mintRate()":"ca0dcf16","numWords()":"7ccfd7fc","owner()":"8da5cb5b","pause()":"8456cb59","paused()":"5c975abb","placeBet(uint8)":"43046844","rawFulfillRandomWords(uint256,uint256[])":"1fe543e3","renounceOwnership()":"715018a6","requestConfirmations()":"b0fb162f","setBetLimits(uint256,uint256)":"7687dd49","setMintRate(uint256)":"dbe2193f","subscriptionId()":"09c1ba2e","testFulfillRandomWords(uint256,uint256[])":"02c4d72b","transferOwnership(address)":"f2fde38b","unpause()":"3f4ba83a","vrfCoordinator()":"a3e56fa8","withdraw()":"3ccfd60b"},"id":25}