{"abi":[{"type":"constructor","inputs":[{"name":"_token","type":"address","internalType":"contract IVotes"},{"name":"_timelock","type":"address","internalType":"contract TimelockController"},{"name":"_casino","type":"address","internalType":"contract Casino"}],"stateMutability":"nonpayable"},{"type":"receive","stateMutability":"payable"},{"type":"function","name":"BALLOT_TYPEHASH","inputs":[],"outputs":[{"name":"","type":"bytes32","internalType":"bytes32"}],"stateMutability":"view"},{"type":"function","name":"CLOCK_MODE","inputs":[],"outputs":[{"name":"","type":"string","internalType":"string"}],"stateMutability":"view"},{"type":"function","name":"COUNTING_MODE","inputs":[],"outputs":[{"name":"","type":"string","internalType":"string"}],"stateMutability":"pure"},{"type":"function","name":"EXTENDED_BALLOT_TYPEHASH","inputs":[],"outputs":[{"name":"","type":"bytes32","internalType":"bytes32"}],"stateMutability":"view"},{"type":"function","name":"MAX_MINT_RATE","inputs":[],"outputs":[{"name":"","type":"uint256","internalType":"uint256"}],"stateMutability":"view"},{"type":"function","name":"MIN_MINT_RATE","inputs":[],"outputs":[{"name":"","type":"uint256","internalType":"uint256"}],"stateMutability":"view"},{"type":"function","name":"cancel","inputs":[{"name":"proposalId","type":"uint256","internalType":"uint256"}],"outputs":[],"stateMutability":"nonpayable"},{"type":"function","name":"cancel","inputs":[{"name":"targets","type":"address[]","internalType":"address[]"},{"name":"values","type":"uint256[]","internalType":"uint256[]"},{"name":"calldatas","type":"bytes[]","internalType":"bytes[]"},{"name":"descriptionHash","type":"bytes32","internalType":"bytes32"}],"outputs":[{"name":"","type":"uint256","internalType":"uint256"}],"stateMutability":"nonpayable"},{"type":"function","name":"casino","inputs":[],"outputs":[{"name":"","type":"address","internalType":"contract Casino"}],"stateMutability":"view"},{"type":"function","name":"castVote","inputs":[{"name":"proposalId","type":"uint256","internalType":"uint256"},{"name":"support","type":"uint8","internalType":"uint8"}],"outputs":[{"name":"","type":"uint256","internalType":"uint256"}],"stateMutability":"nonpayable"},{"type":"function","name":"castVoteBySig","inputs":[{"name":"proposalId","type":"uint256","internalType":"uint256"},{"name":"support","type":"uint8","internalType":"uint8"},{"name":"v","type":"uint8","internalType":"uint8"},{"name":"r","type":"bytes32","internalType":"bytes32"},{"name":"s","type":"bytes32","internalType":"bytes32"}],"outputs":[{"name":"","type":"uint256","internalType":"uint256"}],"stateMutability":"nonpayable"},{"type":"function","name":"castVoteWithReason","inputs":[{"name":"proposalId","type":"uint256","internalType":"uint256"},{"name":"support","type":"uint8","internalType":"uint8"},{"name":"reason","type":"string","internalType":"string"}],"outputs":[{"name":"","type":"uint256","internalType":"uint256"}],"stateMutability":"nonpayable"},{"type":"function","name":"castVoteWithReasonAndParams","inputs":[{"name":"proposalId","type":"uint256","internalType":"uint256"},{"name":"support","type":"uint8","internalType":"uint8"},{"name":"reason","type":"string","internalType":"string"},{"name":"params","type":"bytes","internalType":"bytes"}],"outputs":[{"name":"","type":"uint256","internalType":"uint256"}],"stateMutability":"nonpayable"},{"type":"function","name":"castVoteWithReasonAndParamsBySig","inputs":[{"name":"proposalId","type":"uint256","internalType":"uint256"},{"name":"support","type":"uint8","internalType":"uint8"},{"name":"reason","type":"string","internalType":"string"},{"name":"params","type":"bytes","internalType":"bytes"},{"name":"v","type":"uint8","internalType":"uint8"},{"name":"r","type":"bytes32","internalType":"bytes32"},{"name":"s","type":"bytes32","internalType":"bytes32"}],"outputs":[{"name":"","type":"uint256","internalType":"uint256"}],"stateMutability":"nonpayable"},{"type":"function","name":"clock","inputs":[],"outputs":[{"name":"","type":"uint48","internalType":"uint48"}],"stateMutability":"view"},{"type":"function","name":"eip712Domain","inputs":[],"outputs":[{"name":"fields","type":"bytes1","internalType":"bytes1"},{"name":"name","type":"string","internalType":"string"},{"name":"version","type":"string","internalType":"string"},{"name":"chainId","type":"uint256","internalType":"uint256"},{"name":"verifyingContract","type":"address","internalType":"address"},{"name":"salt","type":"bytes32","internalType":"bytes32"},{"name":"extensions","type":"uint256[]","internalType":"uint256[]"}],"stateMutability":"view"},{"type":"function","name":"execute","inputs":[{"name":"targets","type":"address[]","internalType":"address[]"},{"name":"values","type":"uint256[]","internalType":"uint256[]"},{"name":"calldatas","type":"bytes[]","internalType":"bytes[]"},{"name":"descriptionHash","type":"bytes32","internalType":"bytes32"}],"outputs":[{"name":"","type":"uint256","internalType":"uint256"}],"stateMutability":"payable"},{"type":"function","name":"execute","inputs":[{"name":"proposalId","type":"uint256","internalType":"uint256"}],"outputs":[],"stateMutability":"payable"},{"type":"function","name":"getActions","inputs":[{"name":"proposalId","type":"uint256","internalType":"uint256"}],"outputs":[{"name":"targets","type":"address[]","internalType":"address[]"},{"name":"values","type":"uint256[]","internalType":"uint256[]"},{"name":"signatures","type":"string[]","internalType":"string[]"},{"name":"calldatas","type":"bytes[]","internalType":"bytes[]"}],"stateMutability":"view"},{"type":"function","name":"getReceipt","inputs":[{"name":"proposalId","type":"uint256","internalType":"uint256"},{"name":"voter","type":"address","internalType":"address"}],"outputs":[{"name":"","type":"tuple","internalType":"struct IGovernorCompatibilityBravo.Receipt","components":[{"name":"hasVoted","type":"bool","internalType":"bool"},{"name":"support","type":"uint8","internalType":"uint8"},{"name":"votes","type":"uint96","internalType":"uint96"}]}],"stateMutability":"view"},{"type":"function","name":"getVotes","inputs":[{"name":"account","type":"address","internalType":"address"},{"name":"timepoint","type":"uint256","internalType":"uint256"}],"outputs":[{"name":"","type":"uint256","internalType":"uint256"}],"stateMutability":"view"},{"type":"function","name":"getVotesWithParams","inputs":[{"name":"account","type":"address","internalType":"address"},{"name":"timepoint","type":"uint256","internalType":"uint256"},{"name":"params","type":"bytes","internalType":"bytes"}],"outputs":[{"name":"","type":"uint256","internalType":"uint256"}],"stateMutability":"view"},{"type":"function","name":"hasVoted","inputs":[{"name":"proposalId","type":"uint256","internalType":"uint256"},{"name":"account","type":"address","internalType":"address"}],"outputs":[{"name":"","type":"bool","internalType":"bool"}],"stateMutability":"view"},{"type":"function","name":"hashProposal","inputs":[{"name":"targets","type":"address[]","internalType":"address[]"},{"name":"values","type":"uint256[]","internalType":"uint256[]"},{"name":"calldatas","type":"bytes[]","internalType":"bytes[]"},{"name":"descriptionHash","type":"bytes32","internalType":"bytes32"}],"outputs":[{"name":"","type":"uint256","internalType":"uint256"}],"stateMutability":"pure"},{"type":"function","name":"name","inputs":[],"outputs":[{"name":"","type":"string","internalType":"string"}],"stateMutability":"view"},{"type":"function","name":"onERC1155BatchReceived","inputs":[{"name":"","type":"address","internalType":"address"},{"name":"","type":"address","internalType":"address"},{"name":"","type":"uint256[]","internalType":"uint256[]"},{"name":"","type":"uint256[]","internalType":"uint256[]"},{"name":"","type":"bytes","internalType":"bytes"}],"outputs":[{"name":"","type":"bytes4","internalType":"bytes4"}],"stateMutability":"nonpayable"},{"type":"function","name":"onERC1155Received","inputs":[{"name":"","type":"address","internalType":"address"},{"name":"","type":"address","internalType":"address"},{"name":"","type":"uint256","internalType":"uint256"},{"name":"","type":"uint256","internalType":"uint256"},{"name":"","type":"bytes","internalType":"bytes"}],"outputs":[{"name":"","type":"bytes4","internalType":"bytes4"}],"stateMutability":"nonpayable"},{"type":"function","name":"onERC721Received","inputs":[{"name":"","type":"address","internalType":"address"},{"name":"","type":"address","internalType":"address"},{"name":"","type":"uint256","internalType":"uint256"},{"name":"","type":"bytes","internalType":"bytes"}],"outputs":[{"name":"","type":"bytes4","internalType":"bytes4"}],"stateMutability":"nonpayable"},{"type":"function","name":"proposalDeadline","inputs":[{"name":"proposalId","type":"uint256","internalType":"uint256"}],"outputs":[{"name":"","type":"uint256","internalType":"uint256"}],"stateMutability":"view"},{"type":"function","name":"proposalEta","inputs":[{"name":"proposalId","type":"uint256","internalType":"uint256"}],"outputs":[{"name":"","type":"uint256","internalType":"uint256"}],"stateMutability":"view"},{"type":"function","name":"proposalProposer","inputs":[{"name":"proposalId","type":"uint256","internalType":"uint256"}],"outputs":[{"name":"","type":"address","internalType":"address"}],"stateMutability":"view"},{"type":"function","name":"proposalSnapshot","inputs":[{"name":"proposalId","type":"uint256","internalType":"uint256"}],"outputs":[{"name":"","type":"uint256","internalType":"uint256"}],"stateMutability":"view"},{"type":"function","name":"proposalThreshold","inputs":[],"outputs":[{"name":"","type":"uint256","internalType":"uint256"}],"stateMutability":"view"},{"type":"function","name":"proposals","inputs":[{"name":"proposalId","type":"uint256","internalType":"uint256"}],"outputs":[{"name":"id","type":"uint256","internalType":"uint256"},{"name":"proposer","type":"address","internalType":"address"},{"name":"eta","type":"uint256","internalType":"uint256"},{"name":"startBlock","type":"uint256","internalType":"uint256"},{"name":"endBlock","type":"uint256","internalType":"uint256"},{"name":"forVotes","type":"uint256","internalType":"uint256"},{"name":"againstVotes","type":"uint256","internalType":"uint256"},{"name":"abstainVotes","type":"uint256","internalType":"uint256"},{"name":"canceled","type":"bool","internalType":"bool"},{"name":"executed","type":"bool","internalType":"bool"}],"stateMutability":"view"},{"type":"function","name":"propose","inputs":[{"name":"targets","type":"address[]","internalType":"address[]"},{"name":"values","type":"uint256[]","internalType":"uint256[]"},{"name":"calldatas","type":"bytes[]","internalType":"bytes[]"},{"name":"description","type":"string","internalType":"string"}],"outputs":[{"name":"","type":"uint256","internalType":"uint256"}],"stateMutability":"nonpayable"},{"type":"function","name":"propose","inputs":[{"name":"targets","type":"address[]","internalType":"address[]"},{"name":"values","type":"uint256[]","internalType":"uint256[]"},{"name":"signatures","type":"string[]","internalType":"string[]"},{"name":"calldatas","type":"bytes[]","internalType":"bytes[]"},{"name":"description","type":"string","internalType":"string"}],"outputs":[{"name":"","type":"uint256","internalType":"uint256"}],"stateMutability":"nonpayable"},{"type":"function","name":"proposeNewMintRate","inputs":[{"name":"newRate","type":"uint256","internalType":"uint256"}],"outputs":[{"name":"","type":"uint256","internalType":"uint256"}],"stateMutability":"nonpayable"},{"type":"function","name":"queue","inputs":[{"name":"targets","type":"address[]","internalType":"address[]"},{"name":"values","type":"uint256[]","internalType":"uint256[]"},{"name":"calldatas","type":"bytes[]","internalType":"bytes[]"},{"name":"descriptionHash","type":"bytes32","internalType":"bytes32"}],"outputs":[{"name":"","type":"uint256","internalType":"uint256"}],"stateMutability":"nonpayable"},{"type":"function","name":"queue","inputs":[{"name":"proposalId","type":"uint256","internalType":"uint256"}],"outputs":[],"stateMutability":"nonpayable"},{"type":"function","name":"quorum","inputs":[{"name":"blockNumber","type":"uint256","internalType":"uint256"}],"outputs":[{"name":"","type":"uint256","internalType":"uint256"}],"stateMutability":"view"},{"type":"function","name":"quorumDenominator","inputs":[],"outputs":[{"name":"","type":"uint256","internalType":"uint256"}],"stateMutability":"view"},{"type":"function","name":"quorumNumerator","inputs":[{"name":"timepoint","type":"uint256","internalType":"uint256"}],"outputs":[{"name":"","type":"uint256","internalType":"uint256"}],"stateMutability":"view"},{"type":"function","name":"quorumNumerator","inputs":[],"outputs":[{"name":"","type":"uint256","internalType":"uint256"}],"stateMutability":"view"},{"type":"function","name":"quorumVotes","inputs":[],"outputs":[{"name":"","type":"uint256","internalType":"uint256"}],"stateMutability":"view"},{"type":"function","name":"relay","inputs":[{"name":"target","type":"address","internalType":"address"},{"name":"value","type":"uint256","internalType":"uint256"},{"name":"data","type":"bytes","internalType":"bytes"}],"outputs":[],"stateMutability":"payable"},{"type":"function","name":"state","inputs":[{"name":"proposalId","type":"uint256","internalType":"uint256"}],"outputs":[{"name":"","type":"uint8","internalType":"enum IGovernor.ProposalState"}],"stateMutability":"view"},{"type":"function","name":"supportsInterface","inputs":[{"name":"interfaceId","type":"bytes4","internalType":"bytes4"}],"outputs":[{"name":"","type":"bool","internalType":"bool"}],"stateMutability":"view"},{"type":"function","name":"timelock","inputs":[],"outputs":[{"name":"","type":"address","internalType":"address"}],"stateMutability":"view"},{"type":"function","name":"toString","inputs":[{"name":"value","type":"uint256","internalType":"uint256"}],"outputs":[{"name":"","type":"string","internalType":"string"}],"stateMutability":"pure"},{"type":"function","name":"token","inputs":[],"outputs":[{"name":"","type":"address","internalType":"contract IERC5805"}],"stateMutability":"view"},{"type":"function","name":"updateQuorumNumerator","inputs":[{"name":"newQuorumNumerator","type":"uint256","internalType":"uint256"}],"outputs":[],"stateMutability":"nonpayable"},{"type":"function","name":"updateTimelock","inputs":[{"name":"newTimelock","type":"address","internalType":"contract TimelockController"}],"outputs":[],"stateMutability":"nonpayable"},{"type":"function","name":"version","inputs":[],"outputs":[{"name":"","type":"string","internalType":"string"}],"stateMutability":"view"},{"type":"function","name":"votingDelay","inputs":[],"outputs":[{"name":"","type":"uint256","internalType":"uint256"}],"stateMutability":"pure"},{"type":"function","name":"votingPeriod","inputs":[],"outputs":[{"name":"","type":"uint256","internalType":"uint256"}],"stateMutability":"pure"},{"type":"event","name":"EIP712DomainChanged","inputs":[],"anonymous":false},{"type":"event","name":"ProposalCanceled","inputs":[{"name":"proposalId","type":"uint256","indexed":false,"internalType":"uint256"}],"anonymous":false},{"type":"event","name":"ProposalCreated","inputs":[{"name":"proposalId","type":"uint256","indexed":false,"internalType":"uint256"},{"name":"proposer","type":"address","indexed":false,"internalType":"address"},{"name":"targets","type":"address[]","indexed":false,"internalType":"address[]"},{"name":"values","type":"uint256[]","indexed":false,"internalType":"uint256[]"},{"name":"signatures","type":"string[]","indexed":false,"internalType":"string[]"},{"name":"calldatas","type":"bytes[]","indexed":false,"internalType":"bytes[]"},{"name":"voteStart","type":"uint256","indexed":false,"internalType":"uint256"},{"name":"voteEnd","type":"uint256","indexed":false,"internalType":"uint256"},{"name":"description","type":"string","indexed":false,"internalType":"string"}],"anonymous":false},{"type":"event","name":"ProposalExecuted","inputs":[{"name":"proposalId","type":"uint256","indexed":false,"internalType":"uint256"}],"anonymous":false},{"type":"event","name":"ProposalQueued","inputs":[{"name":"proposalId","type":"uint256","indexed":false,"internalType":"uint256"},{"name":"eta","type":"uint256","indexed":false,"internalType":"uint256"}],"anonymous":false},{"type":"event","name":"QuorumNumeratorUpdated","inputs":[{"name":"oldQuorumNumerator","type":"uint256","indexed":false,"internalType":"uint256"},{"name":"newQuorumNumerator","type":"uint256","indexed":false,"internalType":"uint256"}],"anonymous":false},{"type":"event","name":"TimelockChange","inputs":[{"name":"oldTimelock","type":"address","indexed":false,"internalType":"address"},{"name":"newTimelock","type":"address","indexed":false,"internalType":"address"}],"anonymous":false},{"type":"event","name":"VoteCast","inputs":[{"name":"voter","type":"address","indexed":true,"internalType":"address"},{"name":"proposalId","type":"uint256","indexed":false,"internalType":"uint256"},{"name":"support","type":"uint8","indexed":false,"internalType":"uint8"},{"name":"weight","type":"uint256","indexed":false,"internalType":"uint256"},{"name":"reason","type":"string","indexed":false,"internalType":"string"}],"anonymous":false},{"type":"event","name":"VoteCastWithParams","inputs":[{"name":"voter","type":"address","indexed":true,"internalType":"address"},{"name":"proposalId","type":"uint256","indexed":false,"internalType":"uint256"},{"name":"support","type":"uint8","indexed":false,"internalType":"uint8"},{"name":"weight","type":"uint256","indexed":false,"internalType":"uint256"},{"name":"reason","type":"string","indexed":false,"internalType":"string"},{"name":"params","type":"bytes","indexed":false,"internalType":"bytes"}],"anonymous":false},{"type":"error","name":"Empty","inputs":[]},{"type":"error","name":"InvalidShortString","inputs":[]},{"type":"error","name":"StringTooLong","inputs":[{"name":"str","type":"string","internalType":"string"}]}],"bytecode":{"object":"0x6101a0604052348015610010575f5ffd5b5060405161a94138038061a94183398181016040528101906100329190610ca0565b816005846040518060400160405280601081526020017f436173696e6f476f7665726e616e6365000000000000000000000000000000008152508061007b6101c860201b60201c565b61008e5f8361020560201b90919060201c565b61012081815250506100aa60018261020560201b90919060201c565b6101408181525050818051906020012060e08181525050808051906020012061010081815250504660a081815250506100e761025260201b60201c565b608081815250503073ffffffffffffffffffffffffffffffffffffffff1660c08173ffffffffffffffffffffffffffffffffffffffff1681525050505080600290816101339190610f2d565b50508073ffffffffffffffffffffffffffffffffffffffff166101608173ffffffffffffffffffffffffffffffffffffffff16815250505061017a816102ac60201b60201c565b5061018a8161049860201b60201c565b508073ffffffffffffffffffffffffffffffffffffffff166101808173ffffffffffffffffffffffffffffffffffffffff1681525050505050611576565b60606040518060400160405280600181526020017f3100000000000000000000000000000000000000000000000000000000000000815250905090565b5f6020835110156102265761021f8361053560201b60201c565b905061024c565b826102368361059a60201b60201c565b5f0190816102449190610f2d565b5060ff5f1b90505b92915050565b5f7f8b73c3c69bb8fe3d512ecc4cf759cc79239f7b179b0ffacaa9a75d522b39400f60e051610100514630604051602001610291959493929190611032565b60405160208183030381529060405280519060200120905090565b6102ba6105a360201b60201c565b8111156102fc576040517f08c379a00000000000000000000000000000000000000000000000000000000081526004016102f390611129565b60405180910390fd5b5f61030b6105ab60201b60201c565b90505f811415801561032357505f60085f0180549050145b156104125760085f0160405180604001604052805f63ffffffff168152602001610352846105f660201b60201c565b7bffffffffffffffffffffffffffffffffffffffffffffffffffffffff16815250908060018154018082558091505060019003905f5260205f20015f909190919091505f820151815f015f6101000a81548163ffffffff021916908363ffffffff1602179055506020820151815f0160046101000a8154817bffffffffffffffffffffffffffffffffffffffffffffffffffffffff02191690837bffffffffffffffffffffffffffffffffffffffffffffffffffffffff16021790555050505b61045961043961042661066060201b60201c565b65ffffffffffff166106ee60201b60201c565b610448846105f660201b60201c565b600861074060201b9092919060201c565b50507f0553476bf02ef2726e8ce5ced78d63e26e602e4a2257b1f559418e24b4633997818360405161048c929190611147565b60405180910390a15050565b7f08f74ea46ef7894f65eabfb5e6e695de773a000b47c529ab559178069b22640160095f9054906101000a900473ffffffffffffffffffffffffffffffffffffffff16826040516104ea92919061116e565b60405180910390a18060095f6101000a81548173ffffffffffffffffffffffffffffffffffffffff021916908373ffffffffffffffffffffffffffffffffffffffff16021790555050565b5f5f829050601f8151111561058157826040517f305a27a900000000000000000000000000000000000000000000000000000000815260040161057891906111eb565b60405180910390fd5b80518161058d90611238565b5f1c175f1b915050919050565b5f819050919050565b5f6064905090565b5f5f60085f0180549050146105ed576105ca600861076160201b60201c565b7bffffffffffffffffffffffffffffffffffffffffffffffffffffffff166105f1565b6007545b905090565b5f7bffffffffffffffffffffffffffffffffffffffffffffffffffffffff8016821115610658576040517f08c379a000000000000000000000000000000000000000000000000000000000815260040161064f9061130e565b60405180910390fd5b819050919050565b5f6101605173ffffffffffffffffffffffffffffffffffffffff166391ddadf46040518163ffffffff1660e01b8152600401602060405180830381865afa9250505080156106cc57506040513d601f19601f820116820180604052508101906106c99190611367565b60015b6106e6576106df436107cb60201b60201c565b90506106eb565b809150505b90565b5f63ffffffff8016821115610738576040517f08c379a000000000000000000000000000000000000000000000000000000000815260040161072f90611402565b60405180910390fd5b819050919050565b5f5f610755855f01858561081f60201b60201c565b91509150935093915050565b5f5f825f018054905090505f81146107c157610791835f01600183610786919061144d565b610b9860201b60201c565b5f0160049054906101000a90047bffffffffffffffffffffffffffffffffffffffffffffffffffffffff166107c3565b5f5b915050919050565b5f65ffffffffffff8016821115610817576040517f08c379a000000000000000000000000000000000000000000000000000000000815260040161080e906114f0565b60405180910390fd5b819050919050565b5f5f5f858054905090505f811115610ab0575f61084e87600184610843919061144d565b610b9860201b60201c565b6040518060400160405290815f82015f9054906101000a900463ffffffff1663ffffffff1663ffffffff1681526020015f820160049054906101000a90047bffffffffffffffffffffffffffffffffffffffffffffffffffffffff167bffffffffffffffffffffffffffffffffffffffffffffffffffffffff167bffffffffffffffffffffffffffffffffffffffffffffffffffffffff168152505090508563ffffffff16815f015163ffffffff16111561093e576040517f08c379a000000000000000000000000000000000000000000000000000000000815260040161093590611558565b60405180910390fd5b8563ffffffff16815f015163ffffffff16036109c6578461097188600185610966919061144d565b610b9860201b60201c565b5f0160046101000a8154817bffffffffffffffffffffffffffffffffffffffffffffffffffffffff02191690837bffffffffffffffffffffffffffffffffffffffffffffffffffffffff160217905550610a9f565b8660405180604001604052808863ffffffff168152602001877bffffffffffffffffffffffffffffffffffffffffffffffffffffffff16815250908060018154018082558091505060019003905f5260205f20015f909190919091505f820151815f015f6101000a81548163ffffffff021916908363ffffffff1602179055506020820151815f0160046101000a8154817bffffffffffffffffffffffffffffffffffffffffffffffffffffffff02191690837bffffffffffffffffffffffffffffffffffffffffffffffffffffffff16021790555050505b806020015185935093505050610b90565b8560405180604001604052808763ffffffff168152602001867bffffffffffffffffffffffffffffffffffffffffffffffffffffffff16815250908060018154018082558091505060019003905f5260205f20015f909190919091505f820151815f015f6101000a81548163ffffffff021916908363ffffffff1602179055506020820151815f0160046101000a8154817bffffffffffffffffffffffffffffffffffffffffffffffffffffffff02191690837bffffffffffffffffffffffffffffffffffffffffffffffffffffffff16021790555050505f8492509250505b935093915050565b5f825f528160205f2001905092915050565b5f5ffd5b5f73ffffffffffffffffffffffffffffffffffffffff82169050919050565b5f610bd782610bae565b9050919050565b5f610be882610bcd565b9050919050565b610bf881610bde565b8114610c02575f5ffd5b50565b5f81519050610c1381610bef565b92915050565b5f610c2382610bae565b9050919050565b5f610c3482610c19565b9050919050565b610c4481610c2a565b8114610c4e575f5ffd5b50565b5f81519050610c5f81610c3b565b92915050565b5f610c6f82610c19565b9050919050565b610c7f81610c65565b8114610c89575f5ffd5b50565b5f81519050610c9a81610c76565b92915050565b5f5f5f60608486031215610cb757610cb6610baa565b5b5f610cc486828701610c05565b9350506020610cd586828701610c51565b9250506040610ce686828701610c8c565b9150509250925092565b5f81519050919050565b7f4e487b71000000000000000000000000000000000000000000000000000000005f52604160045260245ffd5b7f4e487b71000000000000000000000000000000000000000000000000000000005f52602260045260245ffd5b5f6002820490506001821680610d6b57607f821691505b602082108103610d7e57610d7d610d27565b5b50919050565b5f819050815f5260205f209050919050565b5f6020601f8301049050919050565b5f82821b905092915050565b5f60088302610de07fffffffffffffffffffffffffffffffffffffffffffffffffffffffffffffffff82610da5565b610dea8683610da5565b95508019841693508086168417925050509392505050565b5f819050919050565b5f819050919050565b5f610e2e610e29610e2484610e02565b610e0b565b610e02565b9050919050565b5f819050919050565b610e4783610e14565b610e5b610e5382610e35565b848454610db1565b825550505050565b5f5f905090565b610e72610e63565b610e7d818484610e3e565b505050565b5b81811015610ea057610e955f82610e6a565b600181019050610e83565b5050565b601f821115610ee557610eb681610d84565b610ebf84610d96565b81016020851015610ece578190505b610ee2610eda85610d96565b830182610e82565b50505b505050565b5f82821c905092915050565b5f610f055f1984600802610eea565b1980831691505092915050565b5f610f1d8383610ef6565b9150826002028217905092915050565b610f3682610cf0565b67ffffffffffffffff811115610f4f57610f4e610cfa565b5b610f598254610d54565b610f64828285610ea4565b5f60209050601f831160018114610f95575f8415610f83578287015190505b610f8d8582610f12565b865550610ff4565b601f198416610fa386610d84565b5f5b82811015610fca57848901518255600182019150602085019450602081019050610fa5565b86831015610fe75784890151610fe3601f891682610ef6565b8355505b6001600288020188555050505b505050505050565b5f819050919050565b61100e81610ffc565b82525050565b61101d81610e02565b82525050565b61102c81610bcd565b82525050565b5f60a0820190506110455f830188611005565b6110526020830187611005565b61105f6040830186611005565b61106c6060830185611014565b6110796080830184611023565b9695505050505050565b5f82825260208201905092915050565b7f476f7665726e6f72566f74657351756f72756d4672616374696f6e3a2071756f5f8201527f72756d4e756d657261746f72206f7665722071756f72756d44656e6f6d696e6160208201527f746f720000000000000000000000000000000000000000000000000000000000604082015250565b5f611113604383611083565b915061111e82611093565b606082019050919050565b5f6020820190508181035f83015261114081611107565b9050919050565b5f60408201905061115a5f830185611014565b6111676020830184611014565b9392505050565b5f6040820190506111815f830185611023565b61118e6020830184611023565b9392505050565b8281835e5f83830152505050565b5f601f19601f8301169050919050565b5f6111bd82610cf0565b6111c78185611083565b93506111d7818560208601611195565b6111e0816111a3565b840191505092915050565b5f6020820190508181035f83015261120381846111b3565b905092915050565b5f81519050919050565b5f819050602082019050919050565b5f61122f8251610ffc565b80915050919050565b5f6112428261120b565b8261124c84611215565b905061125781611224565b92506020821015611297576112927fffffffffffffffffffffffffffffffffffffffffffffffffffffffffffffffff83602003600802610da5565b831692505b5050919050565b7f53616665436173743a2076616c756520646f65736e27742066697420696e20325f8201527f3234206269747300000000000000000000000000000000000000000000000000602082015250565b5f6112f8602783611083565b91506113038261129e565b604082019050919050565b5f6020820190508181035f830152611325816112ec565b9050919050565b5f65ffffffffffff82169050919050565b6113468161132c565b8114611350575f5ffd5b50565b5f815190506113618161133d565b92915050565b5f6020828403121561137c5761137b610baa565b5b5f61138984828501611353565b91505092915050565b7f53616665436173743a2076616c756520646f65736e27742066697420696e20335f8201527f3220626974730000000000000000000000000000000000000000000000000000602082015250565b5f6113ec602683611083565b91506113f782611392565b604082019050919050565b5f6020820190508181035f830152611419816113e0565b9050919050565b7f4e487b71000000000000000000000000000000000000000000000000000000005f52601160045260245ffd5b5f61145782610e02565b915061146283610e02565b925082820390508181111561147a57611479611420565b5b92915050565b7f53616665436173743a2076616c756520646f65736e27742066697420696e20345f8201527f3820626974730000000000000000000000000000000000000000000000000000602082015250565b5f6114da602683611083565b91506114e582611480565b604082019050919050565b5f6020820190508181035f830152611507816114ce565b9050919050565b7f436865636b706f696e743a2064656372656173696e67206b65797300000000005f82015250565b5f611542601b83611083565b915061154d8261150e565b602082019050919050565b5f6020820190508181035f83015261156f81611536565b9050919050565b60805160a05160c05160e05161010051610120516101405161016051610180516193436115fe5f395f8181612202015261280301525f8181611b7c0152818161215e01528181612b4601528181613a500152613e7201525f6120a201525f61206e01525f6151c101525f6151a001525f61413e01525f61419401525f6141bd01526193435ff3fe608060405260043610610353575f3560e01c80637b3c71d3116101c5578063c59057e4116100f6578063deaaa7cc11610094578063f23a6e611161006e578063f23a6e6114610e19578063f8ce560a14610e55578063fc0c546a14610e91578063fe0d94c114610ebb576103cf565b8063deaaa7cc14610d77578063e23a9a5214610da1578063eb9019d414610ddd576103cf565b8063dc553e4a116100d0578063dc553e4a14610cbf578063dd4e2ba514610ce9578063ddf0b00914610d13578063ddfa413a14610d3b576103cf565b8063c59057e414610c1d578063d33219b414610c59578063da95691a14610c83576103cf565b8063a7713a7011610163578063b58131b01161013d578063b58131b014610b5f578063bc197c8114610b89578063c01f9e3714610bc5578063c28bc2fa14610c01576103cf565b8063a7713a7014610ad1578063a890c91014610afb578063ab58fb8e14610b23576103cf565b806391ddadf41161019f57806391ddadf414610a175780639403e8dd14610a4157806397c3d33414610a6b5780639a802a6d14610a95576103cf565b80637b3c71d31461096f5780637d5e81e2146109ab57806384b0196e146109e7576103cf565b8063328dd9821161029f578063452115d61161023d5780635678138811610217578063567813881461087f5780635f398a14146108bb57806360c4247f146108f75780636900a3ae14610933576103cf565b8063452115d6146107ef5780634bf5d7e91461082b57806354fd4d5014610855576103cf565b80633bccf4fd116102795780633bccf4fd146107135780633e4f49e61461074f57806340e58ee51461078b57806343859632146107b3576103cf565b8063328dd98214610680578063365776f3146106bf5780633932abb1146106e9576103cf565b8063143489d01161030c57806324bc1a64116102e657806324bc1a64146105c05780632656227d146105ea5780632d63f6931461061a5780632fe3e26114610656576103cf565b8063143489d01461050c578063150b7a0214610548578063160cbed714610584576103cf565b8063013cf08b146103d357806301ffc9a71461041857806302a251a314610454578063034201811461047e57806306f3f9e6146104ba57806306fdde03146104e2576103cf565b366103cf573073ffffffffffffffffffffffffffffffffffffffff16610377610ed7565b73ffffffffffffffffffffffffffffffffffffffff16146103cd576040517f08c379a00000000000000000000000000000000000000000000000000000000081526004016103c490615eee565b60405180910390fd5b005b5f5ffd5b3480156103de575f5ffd5b506103f960048036038101906103f49190615f50565b610ee5565b60405161040f9a99989796959493929190615fe3565b60405180910390f35b348015610423575f5ffd5b5061043e600480360381019061043991906160d2565b610fcf565b60405161044b91906160fd565b60405180910390f35b34801561045f575f5ffd5b50610468611048565b6040516104759190616116565b60405180910390f35b348015610489575f5ffd5b506104a4600480360381019061049f9190616331565b611050565b6040516104b19190616116565b60405180910390f35b3480156104c5575f5ffd5b506104e060048036038101906104db9190615f50565b611133565b005b3480156104ed575f5ffd5b506104f6611229565b604051610503919061645a565b60405180910390f35b348015610517575f5ffd5b50610532600480360381019061052d9190615f50565b6112b9565b60405161053f919061647a565b60405180910390f35b348015610553575f5ffd5b5061056e600480360381019061056991906164bd565b6112f5565b60405161057b919061654c565b60405180910390f35b34801561058f575f5ffd5b506105aa60048036038101906105a591906167c3565b611308565b6040516105b79190616116565b60405180910390f35b3480156105cb575f5ffd5b506105d46115b0565b6040516105e19190616116565b60405180910390f35b61060460048036038101906105ff91906167c3565b6115da565b6040516106119190616116565b60405180910390f35b348015610625575f5ffd5b50610640600480360381019061063b9190615f50565b611723565b60405161064d9190616116565b60405180910390f35b348015610661575f5ffd5b5061066a61175c565b604051610677919061688a565b60405180910390f35b34801561068b575f5ffd5b506106a660048036038101906106a19190615f50565b611780565b6040516106b69493929190616c21565b60405180910390f35b3480156106ca575f5ffd5b506106d3611a2b565b6040516106e09190616116565b60405180910390f35b3480156106f4575f5ffd5b506106fd611a30565b60405161070a9190616116565b60405180910390f35b34801561071e575f5ffd5b5061073960048036038101906107349190616c80565b611a38565b6040516107469190616116565b60405180910390f35b34801561075a575f5ffd5b5061077560048036038101906107709190615f50565b611ac0565b6040516107829190616d6a565b60405180910390f35b348015610796575f5ffd5b506107b160048036038101906107ac9190615f50565b611ad1565b005b3480156107be575f5ffd5b506107d960048036038101906107d49190616d83565b611afa565b6040516107e691906160fd565b60405180910390f35b3480156107fa575f5ffd5b50610815600480360381019061081091906167c3565b611b61565b6040516108229190616116565b60405180910390f35b348015610836575f5ffd5b5061083f611b78565b60405161084c919061645a565b60405180910390f35b348015610860575f5ffd5b50610869611c4e565b604051610876919061645a565b60405180910390f35b34801561088a575f5ffd5b506108a560048036038101906108a09190616dc1565b611c8b565b6040516108b29190616116565b60405180910390f35b3480156108c6575f5ffd5b506108e160048036038101906108dc9190616dff565b611cba565b6040516108ee9190616116565b60405180910390f35b348015610902575f5ffd5b5061091d60048036038101906109189190615f50565b611d22565b60405161092a9190616116565b60405180910390f35b34801561093e575f5ffd5b5061095960048036038101906109549190615f50565b611e89565b604051610966919061645a565b60405180910390f35b34801561097a575f5ffd5b5061099560048036038101906109909190616e9f565b611fe2565b6040516109a29190616116565b60405180910390f35b3480156109b6575f5ffd5b506109d160048036038101906109cc9190616fae565b612048565b6040516109de9190616116565b60405180910390f35b3480156109f2575f5ffd5b506109fb61205f565b604051610a0e97969594939291906170bc565b60405180910390f35b348015610a22575f5ffd5b50610a2b61215b565b604051610a38919061715e565b60405180910390f35b348015610a4c575f5ffd5b50610a55612200565b604051610a6291906171d2565b60405180910390f35b348015610a76575f5ffd5b50610a7f612224565b604051610a8c9190616116565b60405180910390f35b348015610aa0575f5ffd5b50610abb6004803603810190610ab691906171eb565b61222c565b604051610ac89190616116565b60405180910390f35b348015610adc575f5ffd5b50610ae5612241565b604051610af29190616116565b60405180910390f35b348015610b06575f5ffd5b50610b216004803603810190610b1c91906172a3565b612286565b005b348015610b2e575f5ffd5b50610b496004803603810190610b449190615f50565b61237c565b604051610b569190616116565b60405180910390f35b348015610b6a575f5ffd5b50610b73612442565b604051610b809190616116565b60405180910390f35b348015610b94575f5ffd5b50610baf6004803603810190610baa91906172ce565b612449565b604051610bbc919061654c565b60405180910390f35b348015610bd0575f5ffd5b50610beb6004803603810190610be69190615f50565b61245d565b604051610bf89190616116565b60405180910390f35b610c1b6004803603810190610c1691906173ee565b612497565b005b348015610c28575f5ffd5b50610c436004803603810190610c3e91906167c3565b61261b565b604051610c509190616116565b60405180910390f35b348015610c64575f5ffd5b50610c6d612655565b604051610c7a919061647a565b60405180910390f35b348015610c8e575f5ffd5b50610ca96004803603810190610ca4919061753d565b61267d565b604051610cb69190616116565b60405180910390f35b348015610cca575f5ffd5b50610cd36126f7565b604051610ce09190616116565b60405180910390f35b348015610cf4575f5ffd5b50610cfd6126fc565b604051610d0a919061645a565b60405180910390f35b348015610d1e575f5ffd5b50610d396004803603810190610d349190615f50565b612739565b005b348015610d46575f5ffd5b50610d616004803603810190610d5c9190615f50565b612762565b604051610d6e9190616116565b60405180910390f35b348015610d82575f5ffd5b50610d8b612a04565b604051610d98919061688a565b60405180910390f35b348015610dac575f5ffd5b50610dc76004803603810190610dc29190616d83565b612a28565b604051610dd491906176c4565b60405180910390f35b348015610de8575f5ffd5b50610e036004803603810190610dfe91906176dd565b612b04565b604051610e109190616116565b60405180910390f35b348015610e24575f5ffd5b50610e3f6004803603810190610e3a919061771b565b612b1f565b604051610e4c919061654c565b60405180910390f35b348015610e60575f5ffd5b50610e7b6004803603810190610e769190615f50565b612b33565b604051610e889190616116565b60405180910390f35b348015610e9c575f5ffd5b50610ea5612b44565b604051610eb291906177df565b60405180910390f35b610ed56004803603810190610ed09190615f50565b612b68565b005b5f610ee0612b91565b905090565b5f5f5f5f5f5f5f5f5f5f8a9950610efb8b61237c565b9750610f068b611723565b9650610f118b61245d565b95505f60065f8d81526020019081526020015f209050805f015f9054906101000a900473ffffffffffffffffffffffffffffffffffffffff1699508060050154955080600601549450806007015493505f610f6b8d611ac0565b905060026007811115610f8157610f80616cf7565b5b816007811115610f9457610f93616cf7565b5b149350600780811115610faa57610fa9616cf7565b5b816007811115610fbd57610fbc616cf7565b5b14925050509193959799509193959799565b5f7ff2e09f74000000000000000000000000000000000000000000000000000000007bffffffffffffffffffffffffffffffffffffffffffffffffffffffff1916827bffffffffffffffffffffffffffffffffffffffffffffffffffffffff19161480611041575061104082612bb9565b5b9050919050565b5f6032905090565b5f5f6110d26110ca7fb3b3f3b703cd84ce352197dcff232b1b5d3cfb2025ce47cf04742d0651f1af888c8c8c8c60405161108b929190617826565b60405180910390208b805190602001206040516020016110af95949392919061784d565b60405160208183030381529060405280519060200120612c32565b868686612c4b565b90506111248a828b8b8b8080601f0160208091040260200160405190810160405280939291908181526020018383808284375f81840152601f19601f820116905080830192505050505050508a612c74565b91505098975050505050505050565b61113b610ed7565b73ffffffffffffffffffffffffffffffffffffffff16611159612df9565b73ffffffffffffffffffffffffffffffffffffffff16146111af576040517f08c379a00000000000000000000000000000000000000000000000000000000081526004016111a6906178e8565b60405180910390fd5b3073ffffffffffffffffffffffffffffffffffffffff166111ce610ed7565b73ffffffffffffffffffffffffffffffffffffffff161461121d575f6111f2612e00565b604051611200929190617826565b604051809103902090505b806112166004612e0c565b0361120b57505b61122681612edd565b50565b60606002805461123890617933565b80601f016020809104026020016040519081016040528092919081815260200182805461126490617933565b80156112af5780601f10611286576101008083540402835291602001916112af565b820191905f5260205f20905b81548152906001019060200180831161129257829003601f168201915b5050505050905090565b5f60035f8381526020019081526020015f205f0160089054906101000a900473ffffffffffffffffffffffffffffffffffffffff169050919050565b5f63150b7a0260e01b9050949350505050565b5f5f6113168686868661261b565b90506004600781111561132c5761132b616cf7565b5b61133582611ac0565b600781111561134757611346616cf7565b5b14611387576040517f08c379a000000000000000000000000000000000000000000000000000000000815260040161137e906179d3565b60405180910390fd5b5f60095f9054906101000a900473ffffffffffffffffffffffffffffffffffffffff1673ffffffffffffffffffffffffffffffffffffffff1663f27a0c926040518163ffffffff1660e01b8152600401602060405180830381865afa1580156113f2573d5f5f3e3d5ffd5b505050506040513d601f19601f820116820180604052508101906114169190617a05565b905060095f9054906101000a900473ffffffffffffffffffffffffffffffffffffffff1673ffffffffffffffffffffffffffffffffffffffff1663b1c5f4278888885f896040518663ffffffff1660e01b815260040161147a959493929190617a74565b602060405180830381865afa158015611495573d5f5f3e3d5ffd5b505050506040513d601f19601f820116820180604052508101906114b99190617aee565b600a5f8481526020019081526020015f208190555060095f9054906101000a900473ffffffffffffffffffffffffffffffffffffffff1673ffffffffffffffffffffffffffffffffffffffff16638f2a0bb08888885f89876040518763ffffffff1660e01b815260040161153296959493929190617b19565b5f604051808303815f87803b158015611549575f5ffd5b505af115801561155b573d5f5f3e3d5ffd5b505050507f9a2e42fd6722813d69113e7d0079d3d940171428df7373df9c7f7617cfda289282824261158d9190617bba565b60405161159b929190617bed565b60405180910390a18192505050949350505050565b5f6115d560016115be61215b565b6115c89190617c14565b65ffffffffffff16612b33565b905090565b5f5f6115e88686868661261b565b90505f6115f482611ac0565b90506004600781111561160a57611609616cf7565b5b81600781111561161d5761161c616cf7565b5b148061164d57506005600781111561163857611637616cf7565b5b81600781111561164b5761164a616cf7565b5b145b61168c576040517f08c379a0000000000000000000000000000000000000000000000000000000008152600401611683906179d3565b60405180910390fd5b600160035f8481526020019081526020015f206002015f6101000a81548160ff0219169083151502179055507f712ae1383f79ac853f8d882153778e0260ef8f03b504e2866e0593e04d2b291f826040516116e79190616116565b60405180910390a16116fc82888888886130a5565b6117098288888888613184565b6117168288888888613198565b8192505050949350505050565b5f60035f8381526020019081526020015f205f015f9054906101000a900467ffffffffffffffff1667ffffffffffffffff169050919050565b7fb3b3f3b703cd84ce352197dcff232b1b5d3cfb2025ce47cf04742d0651f1af8881565b6060806060805f60065f8781526020019081526020015f209050806001018160020182600301836004018380548060200260200160405190810160405280929190818152602001828054801561182857602002820191905f5260205f20905b815f9054906101000a900473ffffffffffffffffffffffffffffffffffffffff1673ffffffffffffffffffffffffffffffffffffffff16815260200190600101908083116117df575b505050505093508280548060200260200160405190810160405280929190818152602001828054801561187857602002820191905f5260205f20905b815481526020019060010190808311611864575b5050505050925081805480602002602001604051908101604052809291908181526020015f905b82821015611947578382905f5260205f200180546118bc90617933565b80601f01602080910402602001604051908101604052809291908181526020018280546118e890617933565b80156119335780601f1061190a57610100808354040283529160200191611933565b820191905f5260205f20905b81548152906001019060200180831161191657829003601f168201915b50505050508152602001906001019061189f565b50505050915080805480602002602001604051908101604052809291908181526020015f905b82821015611a15578382905f5260205f2001805461198a90617933565b80601f01602080910402602001604051908101604052809291908181526020018280546119b690617933565b8015611a015780601f106119d857610100808354040283529160200191611a01565b820191905f5260205f20905b8154815290600101906020018083116119e457829003601f168201915b50505050508152602001906001019061196d565b5050505090509450945094509450509193509193565b600181565b5f6001905090565b5f5f611a98611a907f150214d74d59b7d1e90c73fc22ef3d991dd0a76b046543d4d80ab92d2a50328f8989604051602001611a7593929190617c4d565b60405160208183030381529060405280519060200120612c32565b868686612c4b565b9050611ab487828860405180602001604052805f8152506131f3565b91505095945050505050565b5f611aca82613212565b9050919050565b5f5f5f5f611ade856133da565b9350935093509350611af284848484611b61565b505050505050565b5f60065f8481526020019081526020015f206008015f8373ffffffffffffffffffffffffffffffffffffffff1673ffffffffffffffffffffffffffffffffffffffff1681526020019081526020015f205f015f9054906101000a900460ff16905092915050565b5f611b6e8585858561368c565b9050949350505050565b60607f000000000000000000000000000000000000000000000000000000000000000073ffffffffffffffffffffffffffffffffffffffff16634bf5d7e96040518163ffffffff1660e01b81526004015f60405180830381865afa925050508015611c0557506040513d5f823e3d601f19601f82011682018060405250810190611c029190617cf0565b60015b611c46576040518060400160405280601d81526020017f6d6f64653d626c6f636b6e756d6265722666726f6d3d64656661756c740000008152509050611c4b565b809150505b90565b60606040518060400160405280600181526020017f3100000000000000000000000000000000000000000000000000000000000000815250905090565b5f5f611c95612df9565b9050611cb184828560405180602001604052805f8152506131f3565b91505092915050565b5f5f611cc4612df9565b9050611d1687828888888080601f0160208091040260200160405190810160405280939291908181526020018383808284375f81840152601f19601f8201169050808301925050505050505087612c74565b91505095945050505050565b5f5f60085f018054905090505f8103611d4057600754915050611e84565b5f60085f01600183611d529190617d37565b81548110611d6357611d62617d6a565b5b905f5260205f20016040518060400160405290815f82015f9054906101000a900463ffffffff1663ffffffff1663ffffffff1681526020015f820160049054906101000a90047bffffffffffffffffffffffffffffffffffffffffffffffffffffffff167bffffffffffffffffffffffffffffffffffffffffffffffffffffffff167bffffffffffffffffffffffffffffffffffffffffffffffffffffffff1681525050905083815f015163ffffffff1611611e455780602001517bffffffffffffffffffffffffffffffffffffffffffffffffffffffff1692505050611e84565b611e61611e5185613794565b60086137e690919063ffffffff16565b7bffffffffffffffffffffffffffffffffffffffffffffffffffffffff16925050505b919050565b60605f8203611ecf576040518060400160405280600181526020017f30000000000000000000000000000000000000000000000000000000000000008152509050611fdd565b5f8290505f5b5f8214611efe578080611ee790617d97565b915050600a82611ef79190617e0b565b9150611ed5565b5f8167ffffffffffffffff811115611f1957611f186161da565b5b6040519080825280601f01601f191660200182016040528015611f4b5781602001600182028036833780820191505090505b5090505b5f8514611fd657600182611f639190617d37565b9150600a85611f729190617e3b565b6030611f7e9190617bba565b60f81b818381518110611f9457611f93617d6a565b5b60200101907effffffffffffffffffffffffffffffffffffffffffffffffffffffffffffff191690815f1a905350600a85611fcf9190617e0b565b9450611f4f565b8093505050505b919050565b5f5f611fec612df9565b905061203d86828787878080601f0160208091040260200160405190810160405280939291908181526020018383808284375f81840152601f19601f820116905080830192505050505050506131f3565b915050949350505050565b5f612055858585856138d2565b9050949350505050565b5f6060805f5f5f606061209b5f7f000000000000000000000000000000000000000000000000000000000000000061394c90919063ffffffff16565b6120cf60017f000000000000000000000000000000000000000000000000000000000000000061394c90919063ffffffff16565b46305f5f1b5f67ffffffffffffffff8111156120ee576120ed6161da565b5b60405190808252806020026020018201604052801561211c5781602001602082028036833780820191505090505b507f0f00000000000000000000000000000000000000000000000000000000000000959493929190965096509650965096509650965090919293949596565b5f7f000000000000000000000000000000000000000000000000000000000000000073ffffffffffffffffffffffffffffffffffffffff166391ddadf46040518163ffffffff1660e01b8152600401602060405180830381865afa9250505080156121e457506040513d601f19601f820116820180604052508101906121e19190617e95565b60015b6121f8576121f1436139f9565b90506121fd565b809150505b90565b7f000000000000000000000000000000000000000000000000000000000000000081565b5f6064905090565b5f612238848484613a4d565b90509392505050565b5f5f60085f01805490501461227d5761225a6008613af1565b7bffffffffffffffffffffffffffffffffffffffffffffffffffffffff16612281565b6007545b905090565b61228e610ed7565b73ffffffffffffffffffffffffffffffffffffffff166122ac612df9565b73ffffffffffffffffffffffffffffffffffffffff1614612302576040517f08c379a00000000000000000000000000000000000000000000000000000000081526004016122f9906178e8565b60405180910390fd5b3073ffffffffffffffffffffffffffffffffffffffff16612321610ed7565b73ffffffffffffffffffffffffffffffffffffffff1614612370575f612345612e00565b604051612353929190617826565b604051809103902090505b806123696004612e0c565b0361235e57505b61237981613b55565b50565b5f5f60095f9054906101000a900473ffffffffffffffffffffffffffffffffffffffff1673ffffffffffffffffffffffffffffffffffffffff1663d45c4435600a5f8681526020019081526020015f20546040518263ffffffff1660e01b81526004016123e9919061688a565b602060405180830381865afa158015612404573d5f5f3e3d5ffd5b505050506040513d601f19601f820116820180604052508101906124289190617a05565b905060018114612438578061243a565b5f5b915050919050565b5f5f905090565b5f63bc197c8160e01b905095945050505050565b5f60035f8381526020019081526020015f206001015f9054906101000a900467ffffffffffffffff1667ffffffffffffffff169050919050565b61249f610ed7565b73ffffffffffffffffffffffffffffffffffffffff166124bd612df9565b73ffffffffffffffffffffffffffffffffffffffff1614612513576040517f08c379a000000000000000000000000000000000000000000000000000000000815260040161250a906178e8565b60405180910390fd5b3073ffffffffffffffffffffffffffffffffffffffff16612532610ed7565b73ffffffffffffffffffffffffffffffffffffffff1614612581575f612556612e00565b604051612564929190617826565b604051809103902090505b8061257a6004612e0c565b0361256f57505b5f5f8573ffffffffffffffffffffffffffffffffffffffff168585856040516125ab929190617826565b5f6040518083038185875af1925050503d805f81146125e5576040519150601f19603f3d011682016040523d82523d5f602084013e6125ea565b606091505b509150915061261282826040518060600160405280602881526020016192e660289139613bf2565b50505050505050565b5f848484846040516020016126339493929190617ec0565b604051602081830303815290604052805190602001205f1c9050949350505050565b5f60095f9054906101000a900473ffffffffffffffffffffffffffffffffffffffff16905090565b5f82518451146126c2576040517f08c379a00000000000000000000000000000000000000000000000000000000081526004016126b990617f88565b60405180910390fd5b6126d76126cd612df9565b8787878787613c14565b6126ec86866126e68787613d12565b85612048565b905095945050505050565b600a81565b60606040518060400160405280601a81526020017f737570706f72743d627261766f2671756f72756d3d627261766f000000000000815250905090565b5f5f5f5f612746856133da565b935093509350935061275a84848484611308565b505050505050565b5f600182101580156127755750600a8211155b6127b4576040517f08c379a00000000000000000000000000000000000000000000000000000000081526004016127ab90617ff0565b60405180910390fd5b5f600167ffffffffffffffff8111156127d0576127cf6161da565b5b6040519080825280602002602001820160405280156127fe5781602001602082028036833780820191505090505b5090507f0000000000000000000000000000000000000000000000000000000000000000815f8151811061283557612834617d6a565b5b602002602001019073ffffffffffffffffffffffffffffffffffffffff16908173ffffffffffffffffffffffffffffffffffffffff16815250505f600167ffffffffffffffff81111561288b5761288a6161da565b5b6040519080825280602002602001820160405280156128b95781602001602082028036833780820191505090505b5090505f815f815181106128d0576128cf617d6a565b5b6020026020010181815250505f600167ffffffffffffffff8111156128f8576128f76161da565b5b60405190808252806020026020018201604052801561292b57816020015b60608152602001906001900390816129165790505b50905063dbe2193f60e01b856040516024016129479190616116565b604051602081830303815290604052907bffffffffffffffffffffffffffffffffffffffffffffffffffffffff19166020820180517bffffffffffffffffffffffffffffffffffffffffffffffffffffffff8381831617835250505050815f815181106129b7576129b6617d6a565b5b60200260200101819052505f6129cc86611e89565b6040516020016129dc91906180dc565b60405160208183030381529060405290506129f984848484612048565b945050505050919050565b7f150214d74d59b7d1e90c73fc22ef3d991dd0a76b046543d4d80ab92d2a50328f81565b612a30615c08565b60065f8481526020019081526020015f206008015f8373ffffffffffffffffffffffffffffffffffffffff1673ffffffffffffffffffffffffffffffffffffffff1681526020019081526020015f206040518060600160405290815f82015f9054906101000a900460ff161515151581526020015f820160019054906101000a900460ff1660ff1660ff1681526020015f820160029054906101000a90046bffffffffffffffffffffffff166bffffffffffffffffffffffff166bffffffffffffffffffffffff1681525050905092915050565b5f612b178383612b12613e48565b613a4d565b905092915050565b5f63f23a6e6160e01b905095945050505050565b5f612b3d82613e5e565b9050919050565b7f000000000000000000000000000000000000000000000000000000000000000081565b5f5f5f5f612b75856133da565b9350935093509350612b89848484846115da565b505050505050565b5f60095f9054906101000a900473ffffffffffffffffffffffffffffffffffffffff16905090565b5f7f6e665ced000000000000000000000000000000000000000000000000000000007bffffffffffffffffffffffffffffffffffffffffffffffffffffffff1916827bffffffffffffffffffffffffffffffffffffffffffffffffffffffff19161480612c2b5750612c2a82613f23565b5b9050919050565b5f612c44612c3e61413b565b836141f1565b9050919050565b5f5f5f612c5a87878787614231565b91509150612c6781614309565b8192505050949350505050565b5f5f60035f8881526020019081526020015f20905060016007811115612c9d57612c9c616cf7565b5b612ca688611ac0565b6007811115612cb857612cb7616cf7565b5b14612cf8576040517f08c379a0000000000000000000000000000000000000000000000000000000008152600401612cef90618178565b60405180910390fd5b5f612d2487835f015f9054906101000a900467ffffffffffffffff1667ffffffffffffffff1686613a4d565b9050612d33888888848861446e565b5f845103612d94578673ffffffffffffffffffffffffffffffffffffffff167fb8e138887d0aa13bab447e82de9d5c1777041ecd21ca36ba824ff1e6c07ddda489888489604051612d879493929190618196565b60405180910390a2612deb565b8673ffffffffffffffffffffffffffffffffffffffff167fe2babfbac5889a709b63bb7f598b324e08bc5a4fb9ec647fb3cbc9ec07eb87128988848989604051612de2959493929190618228565b60405180910390a25b809250505095945050505050565b5f33905090565b365f5f36915091509091565b5f612e1682614686565b15612e4d576040517f3db2a12a00000000000000000000000000000000000000000000000000000000815260040160405180910390fd5b5f825f015f9054906101000a9004600f0b9050826001015f82600f0b600f0b81526020019081526020015f20549150826001015f82600f0b600f0b81526020019081526020015f205f905560018101835f015f6101000a8154816fffffffffffffffffffffffffffffffff0219169083600f0b6fffffffffffffffffffffffffffffffff16021790555050919050565b612ee5612224565b811115612f27576040517f08c379a0000000000000000000000000000000000000000000000000000000008152600401612f1e9061831d565b60405180910390fd5b5f612f30612241565b90505f8114158015612f4857505f60085f0180549050145b156130315760085f0160405180604001604052805f63ffffffff168152602001612f71846146b7565b7bffffffffffffffffffffffffffffffffffffffffffffffffffffffff16815250908060018154018082558091505060019003905f5260205f20015f909190919091505f820151815f015f6101000a81548163ffffffff021916908363ffffffff1602179055506020820151815f0160046101000a8154817bffffffffffffffffffffffffffffffffffffffffffffffffffffffff02191690837bffffffffffffffffffffffffffffffffffffffffffffffffffffffff16021790555050505b61306661304c61303f61215b565b65ffffffffffff16613794565b613055846146b7565b60086147219092919063ffffffff16565b50507f0553476bf02ef2726e8ce5ced78d63e26e602e4a2257b1f559418e24b46339978183604051613099929190617bed565b60405180910390a15050565b3073ffffffffffffffffffffffffffffffffffffffff166130c4610ed7565b73ffffffffffffffffffffffffffffffffffffffff161461317d575f5f90505b845181101561317b573073ffffffffffffffffffffffffffffffffffffffff1685828151811061311757613116617d6a565b5b602002602001015173ffffffffffffffffffffffffffffffffffffffff16036131705761316f8382815181106131505761314f617d6a565b5b602002602001015180519060200120600461473c90919063ffffffff16565b5b8060010190506130e4565b505b5050505050565b61319185858585856147b3565b5050505050565b3073ffffffffffffffffffffffffffffffffffffffff166131b7610ed7565b73ffffffffffffffffffffffffffffffffffffffff16146131ec576131dc6004614686565b6131eb576131ea600461484b565b5b5b5050505050565b5f61320885858585613203613e48565b612c74565b9050949350505050565b5f5f61321d836148c7565b90506004600781111561323357613232616cf7565b5b81600781111561324657613245616cf7565b5b1461325457809150506133d5565b5f600a5f8581526020019081526020015f205490505f5f1b810361327c5781925050506133d5565b60095f9054906101000a900473ffffffffffffffffffffffffffffffffffffffff1673ffffffffffffffffffffffffffffffffffffffff16632ab0f529826040518263ffffffff1660e01b81526004016132d6919061688a565b602060405180830381865afa1580156132f1573d5f5f3e3d5ffd5b505050506040513d601f19601f820116820180604052508101906133159190618365565b15613325576007925050506133d5565b60095f9054906101000a900473ffffffffffffffffffffffffffffffffffffffff1673ffffffffffffffffffffffffffffffffffffffff1663584b153e826040518263ffffffff1660e01b815260040161337f919061688a565b602060405180830381865afa15801561339a573d5f5f3e3d5ffd5b505050506040513d601f19601f820116820180604052508101906133be9190618365565b156133ce576005925050506133d5565b6002925050505b919050565b60608060605f5f60065f8781526020019081526020015f20905080600101816002016135a283600301805480602002602001604051908101604052809291908181526020015f905b828210156134ca578382905f5260205f2001805461343f90617933565b80601f016020809104026020016040519081016040528092919081815260200182805461346b90617933565b80156134b65780601f1061348d576101008083540402835291602001916134b6565b820191905f5260205f20905b81548152906001019060200180831161349957829003601f168201915b505050505081526020019060010190613422565b5050505084600401805480602002602001604051908101604052809291908181526020015f905b82821015613599578382905f5260205f2001805461350e90617933565b80601f016020809104026020016040519081016040528092919081815260200182805461353a90617933565b80156135855780601f1061355c57610100808354040283529160200191613585565b820191905f5260205f20905b81548152906001019060200180831161356857829003601f168201915b5050505050815260200190600101906134f1565b50505050613d12565b83600901548380548060200260200160405190810160405280929190818152602001828054801561362557602002820191905f5260205f20905b815f9054906101000a900473ffffffffffffffffffffffffffffffffffffffff1673ffffffffffffffffffffffffffffffffffffffff16815260200190600101908083116135dc575b505050505093508280548060200260200160405190810160405280929190818152602001828054801561367557602002820191905f5260205f20905b815481526020019060010190808311613661575b505050505092509450945094509450509193509193565b5f5f61369a8686868661261b565b90505f60065f8381526020019081526020015f205f015f9054906101000a900473ffffffffffffffffffffffffffffffffffffffff1690508073ffffffffffffffffffffffffffffffffffffffff166136f1612df9565b73ffffffffffffffffffffffffffffffffffffffff16148061373d5750613716612442565b61373b82600161372461215b565b61372e9190617c14565b65ffffffffffff16612b04565b105b61377c576040517f08c379a000000000000000000000000000000000000000000000000000000000815260040161377390618400565b60405180910390fd5b613788878787876149ea565b92505050949350505050565b5f63ffffffff80168211156137de576040517f08c379a00000000000000000000000000000000000000000000000000000000081526004016137d59061848e565b60405180910390fd5b819050919050565b5f5f835f018054905090505f5f90505f8290506005831115613864575f61380c84614a01565b846138179190617d37565b9050613825875f0182614af7565b5f015f9054906101000a900463ffffffff1663ffffffff168663ffffffff16101561385257809150613862565b60018161385f9190617bba565b92505b505b5f613873875f01878585614b09565b90505f81146138c457613894875f0160018361388f9190617d37565b614af7565b5f0160049054906101000a90047bffffffffffffffffffffffffffffffffffffffffffffffffffffffff166138c6565b5f5b94505050505092915050565b5f6139366138de612df9565b8686865167ffffffffffffffff8111156138fb576138fa6161da565b5b60405190808252806020026020018201604052801561392e57816020015b60608152602001906001900390816139195790505b508787613c14565b61394285858585614b78565b9050949350505050565b606060ff5f1b83146139685761396183615052565b90506139f3565b81805461397490617933565b80601f01602080910402602001604051908101604052809291908181526020018280546139a090617933565b80156139eb5780601f106139c2576101008083540402835291602001916139eb565b820191905f5260205f20905b8154815290600101906020018083116139ce57829003601f168201915b505050505090505b92915050565b5f65ffffffffffff8016821115613a45576040517f08c379a0000000000000000000000000000000000000000000000000000000008152600401613a3c9061851c565b60405180910390fd5b819050919050565b5f7f000000000000000000000000000000000000000000000000000000000000000073ffffffffffffffffffffffffffffffffffffffff16633a46b1a885856040518363ffffffff1660e01b8152600401613aa992919061853a565b602060405180830381865afa158015613ac4573d5f5f3e3d5ffd5b505050506040513d601f19601f82011682018060405250810190613ae89190617a05565b90509392505050565b5f5f825f018054905090505f8114613b4b57613b1b835f01600183613b169190617d37565b614af7565b5f0160049054906101000a90047bffffffffffffffffffffffffffffffffffffffffffffffffffffffff16613b4d565b5f5b915050919050565b7f08f74ea46ef7894f65eabfb5e6e695de773a000b47c529ab559178069b22640160095f9054906101000a900473ffffffffffffffffffffffffffffffffffffffff1682604051613ba7929190618561565b60405180910390a18060095f6101000a81548173ffffffffffffffffffffffffffffffffffffffff021916908373ffffffffffffffffffffffffffffffffffffffff16021790555050565b60608315613c0257829050613c0d565b613c0c83836150c4565b5b9392505050565b5f818051906020012090505f613c358787613c2f8888613d12565b8561261b565b90505f60065f8381526020019081526020015f2090505f5f1b816009015403613d075788815f015f6101000a81548173ffffffffffffffffffffffffffffffffffffffff021916908373ffffffffffffffffffffffffffffffffffffffff16021790555087816001019080519060200190613cb1929190615c39565b5086816002019080519060200190613cca929190615cc0565b5085816003019080519060200190613ce3929190615d0b565b5084816004019080519060200190613cfc929190615d62565b508281600901819055505b505050505050505050565b60605f825167ffffffffffffffff811115613d3057613d2f6161da565b5b604051908082528060200260200182016040528015613d6357816020015b6060815260200190600190039081613d4e5790505b5090505f5f90505b8151811015613e3d575f858281518110613d8857613d87617d6a565b5b60200260200101515114613df857848181518110613da957613da8617d6a565b5b602002602001015180519060200120848281518110613dcb57613dca617d6a565b5b6020026020010151604051602001613de49291906185d8565b604051602081830303815290604052613e14565b838181518110613e0b57613e0a617d6a565b5b60200260200101515b828281518110613e2757613e26617d6a565b5b6020026020010181905250806001019050613d6b565b508091505092915050565b606060405180602001604052805f815250905090565b5f613e67612224565b613e7083611d22565b7f000000000000000000000000000000000000000000000000000000000000000073ffffffffffffffffffffffffffffffffffffffff16638e539e8c856040518263ffffffff1660e01b8152600401613ec99190616116565b602060405180830381865afa158015613ee4573d5f5f3e3d5ffd5b505050506040513d601f19601f82011682018060405250810190613f089190617a05565b613f1291906185ff565b613f1c9190617e0b565b9050919050565b5f5f63143489d060e01b63452115d660e01b1890505f639a802a6d60e01b630342018160e01b635f398a1460e01b181890505f81837fda287a1d000000000000000000000000000000000000000000000000000000007ff2e09f740000000000000000000000000000000000000000000000000000000018181890505f837fda287a1d000000000000000000000000000000000000000000000000000000007ff2e09f740000000000000000000000000000000000000000000000000000000018189050817bffffffffffffffffffffffffffffffffffffffffffffffffffffffff1916867bffffffffffffffffffffffffffffffffffffffffffffffffffffffff191614806140705750807bffffffffffffffffffffffffffffffffffffffffffffffffffffffff1916867bffffffffffffffffffffffffffffffffffffffffffffffffffffffff1916145b806140b85750837bffffffffffffffffffffffffffffffffffffffffffffffffffffffff1916867bffffffffffffffffffffffffffffffffffffffffffffffffffffffff1916145b8061412057507f4e2312e0000000000000000000000000000000000000000000000000000000007bffffffffffffffffffffffffffffffffffffffffffffffffffffffff1916867bffffffffffffffffffffffffffffffffffffffffffffffffffffffff1916145b80614130575061412f86615113565b5b945050505050919050565b5f7f000000000000000000000000000000000000000000000000000000000000000073ffffffffffffffffffffffffffffffffffffffff163073ffffffffffffffffffffffffffffffffffffffff161480156141b657507f000000000000000000000000000000000000000000000000000000000000000046145b156141e3577f000000000000000000000000000000000000000000000000000000000000000090506141ee565b6141eb61517c565b90505b90565b5f6040517f190100000000000000000000000000000000000000000000000000000000000081528360028201528260228201526042812091505092915050565b5f5f7f7fffffffffffffffffffffffffffffff5d576e7357a4501ddfe92f46681b20a0835f1c1115614269575f600391509150614300565b5f6001878787876040515f815260200160405260405161428c9493929190618640565b6020604051602081039080840390855afa1580156142ac573d5f5f3e3d5ffd5b5050506020604051035190505f73ffffffffffffffffffffffffffffffffffffffff168173ffffffffffffffffffffffffffffffffffffffff16036142f8575f60019250925050614300565b805f92509250505b94509492505050565b5f600481111561431c5761431b616cf7565b5b81600481111561432f5761432e616cf7565b5b031561446b576001600481111561434957614348616cf7565b5b81600481111561435c5761435b616cf7565b5b0361439c576040517f08c379a0000000000000000000000000000000000000000000000000000000008152600401614393906186cd565b60405180910390fd5b600260048111156143b0576143af616cf7565b5b8160048111156143c3576143c2616cf7565b5b03614403576040517f08c379a00000000000000000000000000000000000000000000000000000000081526004016143fa90618735565b60405180910390fd5b6003600481111561441757614416616cf7565b5b81600481111561442a57614429616cf7565b5b0361446a576040517f08c379a0000000000000000000000000000000000000000000000000000000008152600401614461906187c3565b60405180910390fd5b5b50565b5f60065f8781526020019081526020015f2090505f816008015f8773ffffffffffffffffffffffffffffffffffffffff1673ffffffffffffffffffffffffffffffffffffffff1681526020019081526020015f209050805f015f9054906101000a900460ff1615614514576040517f08c379a000000000000000000000000000000000000000000000000000000000815260040161450b90618851565b60405180910390fd5b6001815f015f6101000a81548160ff02191690831515021790555084815f0160016101000a81548160ff021916908360ff16021790555061455484615211565b815f0160026101000a8154816bffffffffffffffffffffffff02191690836bffffffffffffffffffffffff1602179055505f600281111561459857614597616cf7565b5b60ff168560ff16036145c35783826006015f8282546145b79190617bba565b9250508190555061467d565b600160028111156145d7576145d6616cf7565b5b60ff168560ff16036146025783826005015f8282546145f69190617bba565b9250508190555061467c565b60028081111561461557614614616cf7565b5b60ff168560ff16036146405783826007015f8282546146349190617bba565b9250508190555061467b565b6040517f08c379a0000000000000000000000000000000000000000000000000000000008152600401614672906188df565b60405180910390fd5b5b5b50505050505050565b5f815f015f9054906101000a9004600f0b600f0b825f0160109054906101000a9004600f0b600f0b13159050919050565b5f7bffffffffffffffffffffffffffffffffffffffffffffffffffffffff8016821115614719576040517f08c379a00000000000000000000000000000000000000000000000000000000081526004016147109061896d565b60405180910390fd5b819050919050565b5f5f614730855f01858561526b565b91509150935093915050565b5f825f0160109054906101000a9004600f0b905081836001015f83600f0b600f0b81526020019081526020015f208190555060018101835f0160106101000a8154816fffffffffffffffffffffffffffffffff0219169083600f0b6fffffffffffffffffffffffffffffffff160217905550505050565b60095f9054906101000a900473ffffffffffffffffffffffffffffffffffffffff1673ffffffffffffffffffffffffffffffffffffffff1663e38335e5348686865f876040518763ffffffff1660e01b8152600401614816959493929190617a74565b5f604051808303818588803b15801561482d575f5ffd5b505af115801561483f573d5f5f3e3d5ffd5b50505050505050505050565b5f815f015f6101000a8154816fffffffffffffffffffffffffffffffff0219169083600f0b6fffffffffffffffffffffffffffffffff1602179055505f815f0160106101000a8154816fffffffffffffffffffffffffffffffff0219169083600f0b6fffffffffffffffffffffffffffffffff16021790555050565b5f5f60035f8481526020019081526020015f209050806002015f9054906101000a900460ff16156148fc5760079150506149e5565b8060020160019054906101000a900460ff161561491d5760029150506149e5565b5f61492784611723565b90505f810361496b576040517f08c379a0000000000000000000000000000000000000000000000000000000008152600401614962906189d5565b60405180910390fd5b5f61497461215b565b65ffffffffffff169050808210614990575f93505050506149e5565b5f61499a8661245d565b90508181106149b05760019450505050506149e5565b6149b9866155d8565b80156149ca57506149c98661560d565b5b156149dc5760049450505050506149e5565b60039450505050505b919050565b5f6149f785858585615635565b9050949350505050565b5f5f8203614a11575f9050614af2565b5f6001614a1d84615718565b901c6001901b90506001818481614a3757614a36617dde565b5b048201901c90506001818481614a5057614a4f617dde565b5b048201901c90506001818481614a6957614a68617dde565b5b048201901c90506001818481614a8257614a81617dde565b5b048201901c90506001818481614a9b57614a9a617dde565b5b048201901c90506001818481614ab457614ab3617dde565b5b048201901c90506001818481614acd57614acc617dde565b5b048201901c9050614aee81828581614ae857614ae7617dde565b5b046157ef565b9150505b919050565b5f825f528160205f2001905092915050565b5f5b81831015614b6d575f614b1e8484615807565b90508463ffffffff16614b318783614af7565b5f015f9054906101000a900463ffffffff1663ffffffff161115614b5757809250614b67565b600181614b649190617bba565b93505b50614b0b565b819050949350505050565b5f5f614b82612df9565b9050614b8e818461582c565b614bcd576040517f08c379a0000000000000000000000000000000000000000000000000000000008152600401614bc490618a3d565b60405180910390fd5b5f614bd661215b565b65ffffffffffff169050614be8612442565b614bfe83600184614bf99190617d37565b612b04565b1015614c3f576040517f08c379a0000000000000000000000000000000000000000000000000000000008152600401614c3690618acb565b60405180910390fd5b5f614c53888888888051906020012061261b565b90508651885114614c99576040517f08c379a0000000000000000000000000000000000000000000000000000000008152600401614c9090618b59565b60405180910390fd5b8551885114614cdd576040517f08c379a0000000000000000000000000000000000000000000000000000000008152600401614cd490618b59565b60405180910390fd5b5f885111614d20576040517f08c379a0000000000000000000000000000000000000000000000000000000008152600401614d1790618bc1565b60405180910390fd5b5f60035f8381526020019081526020015f205f015f9054906101000a900467ffffffffffffffff1667ffffffffffffffff1614614d92576040517f08c379a0000000000000000000000000000000000000000000000000000000008152600401614d8990618c4f565b60405180910390fd5b5f614d9b611a30565b83614da69190617bba565b90505f614db1611048565b82614dbc9190617bba565b90506040518060e00160405280614dd284615977565b67ffffffffffffffff1681526020018673ffffffffffffffffffffffffffffffffffffffff1681526020015f60e01b7bffffffffffffffffffffffffffffffffffffffffffffffffffffffff19168152602001614e2e83615977565b67ffffffffffffffff1681526020015f60401b67ffffffffffffffff191681526020015f151581526020015f151581525060035f8581526020019081526020015f205f820151815f015f6101000a81548167ffffffffffffffff021916908367ffffffffffffffff1602179055506020820151815f0160086101000a81548173ffffffffffffffffffffffffffffffffffffffff021916908373ffffffffffffffffffffffffffffffffffffffff1602179055506040820151815f01601c6101000a81548163ffffffff021916908360e01c02179055506060820151816001015f6101000a81548167ffffffffffffffff021916908367ffffffffffffffff16021790555060808201518160010160086101000a81548177ffffffffffffffffffffffffffffffffffffffffffffffff021916908360401c021790555060a0820151816002015f6101000a81548160ff02191690831515021790555060c08201518160020160016101000a81548160ff0219169083151502179055509050507f7d84a6263ae0d98d3329bd7b46bb4e8d6f98cd35a7adb45c274c8b7fd5ebd5e083868c8c8e5167ffffffffffffffff811115614fed57614fec6161da565b5b60405190808252806020026020018201604052801561502057816020015b606081526020019060019003908161500b5790505b508d88888f60405161503a99989796959493929190618c6d565b60405180910390a18295505050505050949350505050565b60605f61505e836159cd565b90505f602067ffffffffffffffff81111561507c5761507b6161da565b5b6040519080825280601f01601f1916602001820160405280156150ae5781602001600182028036833780820191505090505b5090508181528360208201528092505050919050565b5f825111156150d65781518083602001fd5b806040517f08c379a000000000000000000000000000000000000000000000000000000000815260040161510a919061645a565b60405180910390fd5b5f7f01ffc9a7000000000000000000000000000000000000000000000000000000007bffffffffffffffffffffffffffffffffffffffffffffffffffffffff1916827bffffffffffffffffffffffffffffffffffffffffffffffffffffffff1916149050919050565b5f7f8b73c3c69bb8fe3d512ecc4cf759cc79239f7b179b0ffacaa9a75d522b39400f7f00000000000000000000000000000000000000000000000000000000000000007f000000000000000000000000000000000000000000000000000000000000000046306040516020016151f6959493929190618d1b565b60405160208183030381529060405280519060200120905090565b5f6bffffffffffffffffffffffff8016821115615263576040517f08c379a000000000000000000000000000000000000000000000000000000000815260040161525a90618ddc565b60405180910390fd5b819050919050565b5f5f5f858054905090505f8111156154f0575f6152948760018461528f9190617d37565b614af7565b6040518060400160405290815f82015f9054906101000a900463ffffffff1663ffffffff1663ffffffff1681526020015f820160049054906101000a90047bffffffffffffffffffffffffffffffffffffffffffffffffffffffff167bffffffffffffffffffffffffffffffffffffffffffffffffffffffff167bffffffffffffffffffffffffffffffffffffffffffffffffffffffff168152505090508563ffffffff16815f015163ffffffff161115615384576040517f08c379a000000000000000000000000000000000000000000000000000000000815260040161537b90618e44565b60405180910390fd5b8563ffffffff16815f015163ffffffff160361540657846153b1886001856153ac9190617d37565b614af7565b5f0160046101000a8154817bffffffffffffffffffffffffffffffffffffffffffffffffffffffff02191690837bffffffffffffffffffffffffffffffffffffffffffffffffffffffff1602179055506154df565b8660405180604001604052808863ffffffff168152602001877bffffffffffffffffffffffffffffffffffffffffffffffffffffffff16815250908060018154018082558091505060019003905f5260205f20015f909190919091505f820151815f015f6101000a81548163ffffffff021916908363ffffffff1602179055506020820151815f0160046101000a8154817bffffffffffffffffffffffffffffffffffffffffffffffffffffffff02191690837bffffffffffffffffffffffffffffffffffffffffffffffffffffffff16021790555050505b8060200151859350935050506155d0565b8560405180604001604052808763ffffffff168152602001867bffffffffffffffffffffffffffffffffffffffffffffffffffffffff16815250908060018154018082558091505060019003905f5260205f20015f909190919091505f820151815f015f6101000a81548163ffffffff021916908363ffffffff1602179055506020820151815f0160046101000a8154817bffffffffffffffffffffffffffffffffffffffffffffffffffffffff02191690837bffffffffffffffffffffffffffffffffffffffffffffffffffffffff16021790555050505f8492509250505b935093915050565b5f5f60065f8481526020019081526020015f20905080600501546156036155fe85611723565b612b33565b1115915050919050565b5f5f60065f8481526020019081526020015f2090508060060154816005015411915050919050565b5f5f61564386868686615a1b565b90505f5f1b600a5f8381526020019081526020015f20541461570c5760095f9054906101000a900473ffffffffffffffffffffffffffffffffffffffff1673ffffffffffffffffffffffffffffffffffffffff1663c4d252f5600a5f8481526020019081526020015f20546040518263ffffffff1660e01b81526004016156ca919061688a565b5f604051808303815f87803b1580156156e1575f5ffd5b505af11580156156f3573d5f5f3e3d5ffd5b50505050600a5f8281526020019081526020015f205f90555b80915050949350505050565b5f5f5f90505f608084901c111561573757608083901c92506080810190505b5f604084901c111561575157604083901c92506040810190505b5f602084901c111561576b57602083901c92506020810190505b5f601084901c111561578557601083901c92506010810190505b5f600884901c111561579f57600883901c92506008810190505b5f600484901c11156157b957600483901c92506004810190505b5f600284901c11156157d357600283901c92506002810190505b5f600184901c11156157e6576001810190505b80915050919050565b5f8183106157fd57816157ff565b825b905092915050565b5f60028284186158179190617e0b565b8284166158249190617bba565b905092915050565b5f5f825190506034811015615845576001915050615971565b5f6014820384015190507f2370726f706f7365723d3078000000000000000000000000000000000000000073ffffffffffffffffffffffffffffffffffffffff19168173ffffffffffffffffffffffffffffffffffffffff1916146158af57600192505050615971565b5f5f90505f6028846158c19190617d37565b90505b8381101561593b575f5f6158f48884815181106158e4576158e3617d6a565b5b602001015160f81c60f81b615b71565b915091508161590c5760019650505050505050615971565b8060ff1660048573ffffffffffffffffffffffffffffffffffffffff16901b17935050508060010190506158c4565b508573ffffffffffffffffffffffffffffffffffffffff168173ffffffffffffffffffffffffffffffffffffffff161493505050505b92915050565b5f67ffffffffffffffff80168211156159c5576040517f08c379a00000000000000000000000000000000000000000000000000000000081526004016159bc90618ed2565b60405180910390fd5b819050919050565b5f5f60ff835f1c169050601f811115615a12576040517fb3512b0c00000000000000000000000000000000000000000000000000000000815260040160405180910390fd5b80915050919050565b5f5f615a298686868661261b565b90505f615a3582611ac0565b905060026007811115615a4b57615a4a616cf7565b5b816007811115615a5e57615a5d616cf7565b5b14158015615a91575060066007811115615a7b57615a7a616cf7565b5b816007811115615a8e57615a8d616cf7565b5b14155b8015615ac15750600780811115615aab57615aaa616cf7565b5b816007811115615abe57615abd616cf7565b5b14155b615b00576040517f08c379a0000000000000000000000000000000000000000000000000000000008152600401615af790618f3a565b60405180910390fd5b600160035f8481526020019081526020015f2060020160016101000a81548160ff0219169083151502179055507f789cf55be980739dad1d0699b93b58e806b51c9d96619bfa8fe0a28abaa7b30c82604051615b5c9190616116565b60405180910390a18192505050949350505050565b5f5f5f8360f81c90508060ff16602f108015615b905750603a8160ff16105b15615ba5576001603082039250925050615c03565b8060ff166040108015615bbb575060478160ff16105b15615bd0576001603782039250925050615c03565b8060ff166060108015615be6575060678160ff16105b15615bfb576001605782039250925050615c03565b5f5f92509250505b915091565b60405180606001604052805f151581526020015f60ff1681526020015f6bffffffffffffffffffffffff1681525090565b828054828255905f5260205f20908101928215615caf579160200282015b82811115615cae578251825f6101000a81548173ffffffffffffffffffffffffffffffffffffffff021916908373ffffffffffffffffffffffffffffffffffffffff16021790555091602001919060010190615c57565b5b509050615cbc9190615db9565b5090565b828054828255905f5260205f20908101928215615cfa579160200282015b82811115615cf9578251825591602001919060010190615cde565b5b509050615d079190615db9565b5090565b828054828255905f5260205f20908101928215615d51579160200282015b82811115615d50578251829081615d4091906190ef565b5091602001919060010190615d29565b5b509050615d5e9190615dd4565b5090565b828054828255905f5260205f20908101928215615da8579160200282015b82811115615da7578251829081615d979190619216565b5091602001919060010190615d80565b5b509050615db59190615df7565b5090565b5b80821115615dd0575f815f905550600101615dba565b5090565b5b80821115615df3575f8181615dea9190615e1a565b50600101615dd5565b5090565b5b80821115615e16575f8181615e0d9190615e57565b50600101615df8565b5090565b508054615e2690617933565b5f825580601f10615e375750615e54565b601f0160209004905f5260205f2090810190615e539190615db9565b5b50565b508054615e6390617933565b5f825580601f10615e745750615e91565b601f0160209004905f5260205f2090810190615e909190615db9565b5b50565b5f82825260208201905092915050565b7f476f7665726e6f723a206d7573742073656e6420746f206578656375746f72005f82015250565b5f615ed8601f83615e94565b9150615ee382615ea4565b602082019050919050565b5f6020820190508181035f830152615f0581615ecc565b9050919050565b5f604051905090565b5f5ffd5b5f5ffd5b5f819050919050565b615f2f81615f1d565b8114615f39575f5ffd5b50565b5f81359050615f4a81615f26565b92915050565b5f60208284031215615f6557615f64615f15565b5b5f615f7284828501615f3c565b91505092915050565b615f8481615f1d565b82525050565b5f73ffffffffffffffffffffffffffffffffffffffff82169050919050565b5f615fb382615f8a565b9050919050565b615fc381615fa9565b82525050565b5f8115159050919050565b615fdd81615fc9565b82525050565b5f61014082019050615ff75f83018d615f7b565b616004602083018c615fba565b616011604083018b615f7b565b61601e606083018a615f7b565b61602b6080830189615f7b565b61603860a0830188615f7b565b61604560c0830187615f7b565b61605260e0830186615f7b565b616060610100830185615fd4565b61606e610120830184615fd4565b9b9a5050505050505050505050565b5f7fffffffff0000000000000000000000000000000000000000000000000000000082169050919050565b6160b18161607d565b81146160bb575f5ffd5b50565b5f813590506160cc816160a8565b92915050565b5f602082840312156160e7576160e6615f15565b5b5f6160f4848285016160be565b91505092915050565b5f6020820190506161105f830184615fd4565b92915050565b5f6020820190506161295f830184615f7b565b92915050565b5f60ff82169050919050565b6161448161612f565b811461614e575f5ffd5b50565b5f8135905061615f8161613b565b92915050565b5f5ffd5b5f5ffd5b5f5ffd5b5f5f83601f84011261618657616185616165565b5b8235905067ffffffffffffffff8111156161a3576161a2616169565b5b6020830191508360018202830111156161bf576161be61616d565b5b9250929050565b5f5ffd5b5f601f19601f8301169050919050565b7f4e487b71000000000000000000000000000000000000000000000000000000005f52604160045260245ffd5b616210826161ca565b810181811067ffffffffffffffff8211171561622f5761622e6161da565b5b80604052505050565b5f616241615f0c565b905061624d8282616207565b919050565b5f67ffffffffffffffff82111561626c5761626b6161da565b5b616275826161ca565b9050602081019050919050565b828183375f83830152505050565b5f6162a261629d84616252565b616238565b9050828152602081018484840111156162be576162bd6161c6565b5b6162c9848285616282565b509392505050565b5f82601f8301126162e5576162e4616165565b5b81356162f5848260208601616290565b91505092915050565b5f819050919050565b616310816162fe565b811461631a575f5ffd5b50565b5f8135905061632b81616307565b92915050565b5f5f5f5f5f5f5f5f60e0898b03121561634d5761634c615f15565b5b5f61635a8b828c01615f3c565b985050602061636b8b828c01616151565b975050604089013567ffffffffffffffff81111561638c5761638b615f19565b5b6163988b828c01616171565b9650965050606089013567ffffffffffffffff8111156163bb576163ba615f19565b5b6163c78b828c016162d1565b94505060806163d88b828c01616151565b93505060a06163e98b828c0161631d565b92505060c06163fa8b828c0161631d565b9150509295985092959890939650565b5f81519050919050565b8281835e5f83830152505050565b5f61642c8261640a565b6164368185615e94565b9350616446818560208601616414565b61644f816161ca565b840191505092915050565b5f6020820190508181035f8301526164728184616422565b905092915050565b5f60208201905061648d5f830184615fba565b92915050565b61649c81615fa9565b81146164a6575f5ffd5b50565b5f813590506164b781616493565b92915050565b5f5f5f5f608085870312156164d5576164d4615f15565b5b5f6164e2878288016164a9565b94505060206164f3878288016164a9565b935050604061650487828801615f3c565b925050606085013567ffffffffffffffff81111561652557616524615f19565b5b616531878288016162d1565b91505092959194509250565b6165468161607d565b82525050565b5f60208201905061655f5f83018461653d565b92915050565b5f67ffffffffffffffff82111561657f5761657e6161da565b5b602082029050602081019050919050565b5f6165a261659d84616565565b616238565b905080838252602082019050602084028301858111156165c5576165c461616d565b5b835b818110156165ee57806165da88826164a9565b8452602084019350506020810190506165c7565b5050509392505050565b5f82601f83011261660c5761660b616165565b5b813561661c848260208601616590565b91505092915050565b5f67ffffffffffffffff82111561663f5761663e6161da565b5b602082029050602081019050919050565b5f61666261665d84616625565b616238565b905080838252602082019050602084028301858111156166855761668461616d565b5b835b818110156166ae578061669a8882615f3c565b845260208401935050602081019050616687565b5050509392505050565b5f82601f8301126166cc576166cb616165565b5b81356166dc848260208601616650565b91505092915050565b5f67ffffffffffffffff8211156166ff576166fe6161da565b5b602082029050602081019050919050565b5f61672261671d846166e5565b616238565b905080838252602082019050602084028301858111156167455761674461616d565b5b835b8181101561678c57803567ffffffffffffffff81111561676a57616769616165565b5b80860161677789826162d1565b85526020850194505050602081019050616747565b5050509392505050565b5f82601f8301126167aa576167a9616165565b5b81356167ba848260208601616710565b91505092915050565b5f5f5f5f608085870312156167db576167da615f15565b5b5f85013567ffffffffffffffff8111156167f8576167f7615f19565b5b616804878288016165f8565b945050602085013567ffffffffffffffff81111561682557616824615f19565b5b616831878288016166b8565b935050604085013567ffffffffffffffff81111561685257616851615f19565b5b61685e87828801616796565b925050606061686f8782880161631d565b91505092959194509250565b616884816162fe565b82525050565b5f60208201905061689d5f83018461687b565b92915050565b5f81519050919050565b5f82825260208201905092915050565b5f819050602082019050919050565b6168d581615fa9565b82525050565b5f6168e683836168cc565b60208301905092915050565b5f602082019050919050565b5f616908826168a3565b61691281856168ad565b935061691d836168bd565b805f5b8381101561694d57815161693488826168db565b975061693f836168f2565b925050600181019050616920565b5085935050505092915050565b5f81519050919050565b5f82825260208201905092915050565b5f819050602082019050919050565b61698c81615f1d565b82525050565b5f61699d8383616983565b60208301905092915050565b5f602082019050919050565b5f6169bf8261695a565b6169c98185616964565b93506169d483616974565b805f5b83811015616a045781516169eb8882616992565b97506169f6836169a9565b9250506001810190506169d7565b5085935050505092915050565b5f81519050919050565b5f82825260208201905092915050565b5f819050602082019050919050565b5f82825260208201905092915050565b5f616a548261640a565b616a5e8185616a3a565b9350616a6e818560208601616414565b616a77816161ca565b840191505092915050565b5f616a8d8383616a4a565b905092915050565b5f602082019050919050565b5f616aab82616a11565b616ab58185616a1b565b935083602082028501616ac785616a2b565b805f5b85811015616b025784840389528151616ae38582616a82565b9450616aee83616a95565b925060208a01995050600181019050616aca565b50829750879550505050505092915050565b5f81519050919050565b5f82825260208201905092915050565b5f819050602082019050919050565b5f81519050919050565b5f82825260208201905092915050565b5f616b6182616b3d565b616b6b8185616b47565b9350616b7b818560208601616414565b616b84816161ca565b840191505092915050565b5f616b9a8383616b57565b905092915050565b5f602082019050919050565b5f616bb882616b14565b616bc28185616b1e565b935083602082028501616bd485616b2e565b805f5b85811015616c0f5784840389528151616bf08582616b8f565b9450616bfb83616ba2565b925060208a01995050600181019050616bd7565b50829750879550505050505092915050565b5f6080820190508181035f830152616c3981876168fe565b90508181036020830152616c4d81866169b5565b90508181036040830152616c618185616aa1565b90508181036060830152616c758184616bae565b905095945050505050565b5f5f5f5f5f60a08688031215616c9957616c98615f15565b5b5f616ca688828901615f3c565b9550506020616cb788828901616151565b9450506040616cc888828901616151565b9350506060616cd98882890161631d565b9250506080616cea8882890161631d565b9150509295509295909350565b7f4e487b71000000000000000000000000000000000000000000000000000000005f52602160045260245ffd5b60088110616d3557616d34616cf7565b5b50565b5f819050616d4582616d24565b919050565b5f616d5482616d38565b9050919050565b616d6481616d4a565b82525050565b5f602082019050616d7d5f830184616d5b565b92915050565b5f5f60408385031215616d9957616d98615f15565b5b5f616da685828601615f3c565b9250506020616db7858286016164a9565b9150509250929050565b5f5f60408385031215616dd757616dd6615f15565b5b5f616de485828601615f3c565b9250506020616df585828601616151565b9150509250929050565b5f5f5f5f5f60808688031215616e1857616e17615f15565b5b5f616e2588828901615f3c565b9550506020616e3688828901616151565b945050604086013567ffffffffffffffff811115616e5757616e56615f19565b5b616e6388828901616171565b9350935050606086013567ffffffffffffffff811115616e8657616e85615f19565b5b616e92888289016162d1565b9150509295509295909350565b5f5f5f5f60608587031215616eb757616eb6615f15565b5b5f616ec487828801615f3c565b9450506020616ed587828801616151565b935050604085013567ffffffffffffffff811115616ef657616ef5615f19565b5b616f0287828801616171565b925092505092959194509250565b5f67ffffffffffffffff821115616f2a57616f296161da565b5b616f33826161ca565b9050602081019050919050565b5f616f52616f4d84616f10565b616238565b905082815260208101848484011115616f6e57616f6d6161c6565b5b616f79848285616282565b509392505050565b5f82601f830112616f9557616f94616165565b5b8135616fa5848260208601616f40565b91505092915050565b5f5f5f5f60808587031215616fc657616fc5615f15565b5b5f85013567ffffffffffffffff811115616fe357616fe2615f19565b5b616fef878288016165f8565b945050602085013567ffffffffffffffff8111156170105761700f615f19565b5b61701c878288016166b8565b935050604085013567ffffffffffffffff81111561703d5761703c615f19565b5b61704987828801616796565b925050606085013567ffffffffffffffff81111561706a57617069615f19565b5b61707687828801616f81565b91505092959194509250565b5f7fff0000000000000000000000000000000000000000000000000000000000000082169050919050565b6170b681617082565b82525050565b5f60e0820190506170cf5f83018a6170ad565b81810360208301526170e18189616422565b905081810360408301526170f58188616422565b90506171046060830187615f7b565b6171116080830186615fba565b61711e60a083018561687b565b81810360c083015261713081846169b5565b905098975050505050505050565b5f65ffffffffffff82169050919050565b6171588161713e565b82525050565b5f6020820190506171715f83018461714f565b92915050565b5f819050919050565b5f61719a61719561719084615f8a565b617177565b615f8a565b9050919050565b5f6171ab82617180565b9050919050565b5f6171bc826171a1565b9050919050565b6171cc816171b2565b82525050565b5f6020820190506171e55f8301846171c3565b92915050565b5f5f5f6060848603121561720257617201615f15565b5b5f61720f868287016164a9565b935050602061722086828701615f3c565b925050604084013567ffffffffffffffff81111561724157617240615f19565b5b61724d868287016162d1565b9150509250925092565b5f61726182615f8a565b9050919050565b5f61727282617257565b9050919050565b61728281617268565b811461728c575f5ffd5b50565b5f8135905061729d81617279565b92915050565b5f602082840312156172b8576172b7615f15565b5b5f6172c58482850161728f565b91505092915050565b5f5f5f5f5f60a086880312156172e7576172e6615f15565b5b5f6172f4888289016164a9565b9550506020617305888289016164a9565b945050604086013567ffffffffffffffff81111561732657617325615f19565b5b617332888289016166b8565b935050606086013567ffffffffffffffff81111561735357617352615f19565b5b61735f888289016166b8565b925050608086013567ffffffffffffffff8111156173805761737f615f19565b5b61738c888289016162d1565b9150509295509295909350565b5f5f83601f8401126173ae576173ad616165565b5b8235905067ffffffffffffffff8111156173cb576173ca616169565b5b6020830191508360018202830111156173e7576173e661616d565b5b9250929050565b5f5f5f5f6060858703121561740657617405615f15565b5b5f617413878288016164a9565b945050602061742487828801615f3c565b935050604085013567ffffffffffffffff81111561744557617444615f19565b5b61745187828801617399565b925092505092959194509250565b5f67ffffffffffffffff821115617479576174786161da565b5b602082029050602081019050919050565b5f61749c6174978461745f565b616238565b905080838252602082019050602084028301858111156174bf576174be61616d565b5b835b8181101561750657803567ffffffffffffffff8111156174e4576174e3616165565b5b8086016174f18982616f81565b855260208501945050506020810190506174c1565b5050509392505050565b5f82601f83011261752457617523616165565b5b813561753484826020860161748a565b91505092915050565b5f5f5f5f5f60a0868803121561755657617555615f15565b5b5f86013567ffffffffffffffff81111561757357617572615f19565b5b61757f888289016165f8565b955050602086013567ffffffffffffffff8111156175a05761759f615f19565b5b6175ac888289016166b8565b945050604086013567ffffffffffffffff8111156175cd576175cc615f19565b5b6175d988828901617510565b935050606086013567ffffffffffffffff8111156175fa576175f9615f19565b5b61760688828901616796565b925050608086013567ffffffffffffffff81111561762757617626615f19565b5b61763388828901616f81565b9150509295509295909350565b61764981615fc9565b82525050565b6176588161612f565b82525050565b5f6bffffffffffffffffffffffff82169050919050565b61767e8161765e565b82525050565b606082015f8201516176985f850182617640565b5060208201516176ab602085018261764f565b5060408201516176be6040850182617675565b50505050565b5f6060820190506176d75f830184617684565b92915050565b5f5f604083850312156176f3576176f2615f15565b5b5f617700858286016164a9565b925050602061771185828601615f3c565b9150509250929050565b5f5f5f5f5f60a0868803121561773457617733615f15565b5b5f617741888289016164a9565b9550506020617752888289016164a9565b945050604061776388828901615f3c565b935050606061777488828901615f3c565b925050608086013567ffffffffffffffff81111561779557617794615f19565b5b6177a1888289016162d1565b9150509295509295909350565b5f6177b882617180565b9050919050565b5f6177c9826177ae565b9050919050565b6177d9816177bf565b82525050565b5f6020820190506177f25f8301846177d0565b92915050565b5f81905092915050565b5f61780d83856177f8565b935061781a838584616282565b82840190509392505050565b5f617832828486617802565b91508190509392505050565b6178478161612f565b82525050565b5f60a0820190506178605f83018861687b565b61786d6020830187615f7b565b61787a604083018661783e565b617887606083018561687b565b617894608083018461687b565b9695505050505050565b7f476f7665726e6f723a206f6e6c79476f7665726e616e636500000000000000005f82015250565b5f6178d2601883615e94565b91506178dd8261789e565b602082019050919050565b5f6020820190508181035f8301526178ff816178c6565b9050919050565b7f4e487b71000000000000000000000000000000000000000000000000000000005f52602260045260245ffd5b5f600282049050600182168061794a57607f821691505b60208210810361795d5761795c617906565b5b50919050565b7f476f7665726e6f723a2070726f706f73616c206e6f74207375636365737366755f8201527f6c00000000000000000000000000000000000000000000000000000000000000602082015250565b5f6179bd602183615e94565b91506179c882617963565b604082019050919050565b5f6020820190508181035f8301526179ea816179b1565b9050919050565b5f815190506179ff81615f26565b92915050565b5f60208284031215617a1a57617a19615f15565b5b5f617a27848285016179f1565b91505092915050565b5f819050919050565b5f815f1b9050919050565b5f617a5e617a59617a5484617a30565b617a39565b6162fe565b9050919050565b617a6e81617a44565b82525050565b5f60a0820190508181035f830152617a8c81886168fe565b90508181036020830152617aa081876169b5565b90508181036040830152617ab48186616bae565b9050617ac36060830185617a65565b617ad0608083018461687b565b9695505050505050565b5f81519050617ae881616307565b92915050565b5f60208284031215617b0357617b02615f15565b5b5f617b1084828501617ada565b91505092915050565b5f60c0820190508181035f830152617b3181896168fe565b90508181036020830152617b4581886169b5565b90508181036040830152617b598187616bae565b9050617b686060830186617a65565b617b75608083018561687b565b617b8260a0830184615f7b565b979650505050505050565b7f4e487b71000000000000000000000000000000000000000000000000000000005f52601160045260245ffd5b5f617bc482615f1d565b9150617bcf83615f1d565b9250828201905080821115617be757617be6617b8d565b5b92915050565b5f604082019050617c005f830185615f7b565b617c0d6020830184615f7b565b9392505050565b5f617c1e8261713e565b9150617c298361713e565b9250828203905065ffffffffffff811115617c4757617c46617b8d565b5b92915050565b5f606082019050617c605f83018661687b565b617c6d6020830185615f7b565b617c7a604083018461783e565b949350505050565b5f617c94617c8f84616f10565b616238565b905082815260208101848484011115617cb057617caf6161c6565b5b617cbb848285616414565b509392505050565b5f82601f830112617cd757617cd6616165565b5b8151617ce7848260208601617c82565b91505092915050565b5f60208284031215617d0557617d04615f15565b5b5f82015167ffffffffffffffff811115617d2257617d21615f19565b5b617d2e84828501617cc3565b91505092915050565b5f617d4182615f1d565b9150617d4c83615f1d565b9250828203905081811115617d6457617d63617b8d565b5b92915050565b7f4e487b71000000000000000000000000000000000000000000000000000000005f52603260045260245ffd5b5f617da182615f1d565b91507fffffffffffffffffffffffffffffffffffffffffffffffffffffffffffffffff8203617dd357617dd2617b8d565b5b600182019050919050565b7f4e487b71000000000000000000000000000000000000000000000000000000005f52601260045260245ffd5b5f617e1582615f1d565b9150617e2083615f1d565b925082617e3057617e2f617dde565b5b828204905092915050565b5f617e4582615f1d565b9150617e5083615f1d565b925082617e6057617e5f617dde565b5b828206905092915050565b617e748161713e565b8114617e7e575f5ffd5b50565b5f81519050617e8f81617e6b565b92915050565b5f60208284031215617eaa57617ea9615f15565b5b5f617eb784828501617e81565b91505092915050565b5f6080820190508181035f830152617ed881876168fe565b90508181036020830152617eec81866169b5565b90508181036040830152617f008185616bae565b9050617f0f606083018461687b565b95945050505050565b7f476f7665726e6f72427261766f3a20696e76616c6964207369676e61747572655f8201527f73206c656e677468000000000000000000000000000000000000000000000000602082015250565b5f617f72602883615e94565b9150617f7d82617f18565b604082019050919050565b5f6020820190508181035f830152617f9f81617f66565b9050919050565b7f496e76616c6964206d696e7420726174650000000000000000000000000000005f82015250565b5f617fda601183615e94565b9150617fe582617fa6565b602082019050919050565b5f6020820190508181035f83015261800781617fce565b9050919050565b5f81905092915050565b7f4368616e6765206d696e74207261746520746f200000000000000000000000005f82015250565b5f61804c60148361800e565b915061805782618018565b601482019050919050565b5f61806c8261640a565b618076818561800e565b9350618086818560208601616414565b80840191505092915050565b7f25000000000000000000000000000000000000000000000000000000000000005f82015250565b5f6180c660018361800e565b91506180d182618092565b600182019050919050565b5f6180e682618040565b91506180f28284618062565b91506180fd826180ba565b915081905092915050565b7f476f7665726e6f723a20766f7465206e6f742063757272656e746c79206163745f8201527f6976650000000000000000000000000000000000000000000000000000000000602082015250565b5f618162602383615e94565b915061816d82618108565b604082019050919050565b5f6020820190508181035f83015261818f81618156565b9050919050565b5f6080820190506181a95f830187615f7b565b6181b6602083018661783e565b6181c36040830185615f7b565b81810360608301526181d58184616422565b905095945050505050565b5f82825260208201905092915050565b5f6181fa82616b3d565b61820481856181e0565b9350618214818560208601616414565b61821d816161ca565b840191505092915050565b5f60a08201905061823b5f830188615f7b565b618248602083018761783e565b6182556040830186615f7b565b81810360608301526182678185616422565b9050818103608083015261827b81846181f0565b90509695505050505050565b7f476f7665726e6f72566f74657351756f72756d4672616374696f6e3a2071756f5f8201527f72756d4e756d657261746f72206f7665722071756f72756d44656e6f6d696e6160208201527f746f720000000000000000000000000000000000000000000000000000000000604082015250565b5f618307604383615e94565b915061831282618287565b606082019050919050565b5f6020820190508181035f830152618334816182fb565b9050919050565b61834481615fc9565b811461834e575f5ffd5b50565b5f8151905061835f8161833b565b92915050565b5f6020828403121561837a57618379615f15565b5b5f61838784828501618351565b91505092915050565b7f476f7665726e6f72427261766f3a2070726f706f7365722061626f76652074685f8201527f726573686f6c6400000000000000000000000000000000000000000000000000602082015250565b5f6183ea602783615e94565b91506183f582618390565b604082019050919050565b5f6020820190508181035f830152618417816183de565b9050919050565b7f53616665436173743a2076616c756520646f65736e27742066697420696e20335f8201527f3220626974730000000000000000000000000000000000000000000000000000602082015250565b5f618478602683615e94565b91506184838261841e565b604082019050919050565b5f6020820190508181035f8301526184a58161846c565b9050919050565b7f53616665436173743a2076616c756520646f65736e27742066697420696e20345f8201527f3820626974730000000000000000000000000000000000000000000000000000602082015250565b5f618506602683615e94565b9150618511826184ac565b604082019050919050565b5f6020820190508181035f830152618533816184fa565b9050919050565b5f60408201905061854d5f830185615fba565b61855a6020830184615f7b565b9392505050565b5f6040820190506185745f830185615fba565b6185816020830184615fba565b9392505050565b5f819050919050565b6185a261859d8261607d565b618588565b82525050565b5f6185b282616b3d565b6185bc81856177f8565b93506185cc818560208601616414565b80840191505092915050565b5f6185e38285618591565b6004820191506185f382846185a8565b91508190509392505050565b5f61860982615f1d565b915061861483615f1d565b925082820261862281615f1d565b9150828204841483151761863957618638617b8d565b5b5092915050565b5f6080820190506186535f83018761687b565b618660602083018661783e565b61866d604083018561687b565b61867a606083018461687b565b95945050505050565b7f45434453413a20696e76616c6964207369676e617475726500000000000000005f82015250565b5f6186b7601883615e94565b91506186c282618683565b602082019050919050565b5f6020820190508181035f8301526186e4816186ab565b9050919050565b7f45434453413a20696e76616c6964207369676e6174757265206c656e677468005f82015250565b5f61871f601f83615e94565b915061872a826186eb565b602082019050919050565b5f6020820190508181035f83015261874c81618713565b9050919050565b7f45434453413a20696e76616c6964207369676e6174757265202773272076616c5f8201527f7565000000000000000000000000000000000000000000000000000000000000602082015250565b5f6187ad602283615e94565b91506187b882618753565b604082019050919050565b5f6020820190508181035f8301526187da816187a1565b9050919050565b7f476f7665726e6f72436f6d7061746962696c697479427261766f3a20766f74655f8201527f20616c7265616479206361737400000000000000000000000000000000000000602082015250565b5f61883b602d83615e94565b9150618846826187e1565b604082019050919050565b5f6020820190508181035f8301526188688161882f565b9050919050565b7f476f7665726e6f72436f6d7061746962696c697479427261766f3a20696e76615f8201527f6c696420766f7465207479706500000000000000000000000000000000000000602082015250565b5f6188c9602d83615e94565b91506188d48261886f565b604082019050919050565b5f6020820190508181035f8301526188f6816188bd565b9050919050565b7f53616665436173743a2076616c756520646f65736e27742066697420696e20325f8201527f3234206269747300000000000000000000000000000000000000000000000000602082015250565b5f618957602783615e94565b9150618962826188fd565b604082019050919050565b5f6020820190508181035f8301526189848161894b565b9050919050565b7f476f7665726e6f723a20756e6b6e6f776e2070726f706f73616c2069640000005f82015250565b5f6189bf601d83615e94565b91506189ca8261898b565b602082019050919050565b5f6020820190508181035f8301526189ec816189b3565b9050919050565b7f476f7665726e6f723a2070726f706f73657220726573747269637465640000005f82015250565b5f618a27601d83615e94565b9150618a32826189f3565b602082019050919050565b5f6020820190508181035f830152618a5481618a1b565b9050919050565b7f476f7665726e6f723a2070726f706f73657220766f7465732062656c6f7720705f8201527f726f706f73616c207468726573686f6c64000000000000000000000000000000602082015250565b5f618ab5603183615e94565b9150618ac082618a5b565b604082019050919050565b5f6020820190508181035f830152618ae281618aa9565b9050919050565b7f476f7665726e6f723a20696e76616c69642070726f706f73616c206c656e67745f8201527f6800000000000000000000000000000000000000000000000000000000000000602082015250565b5f618b43602183615e94565b9150618b4e82618ae9565b604082019050919050565b5f6020820190508181035f830152618b7081618b37565b9050919050565b7f476f7665726e6f723a20656d7074792070726f706f73616c00000000000000005f82015250565b5f618bab601883615e94565b9150618bb682618b77565b602082019050919050565b5f6020820190508181035f830152618bd881618b9f565b9050919050565b7f476f7665726e6f723a2070726f706f73616c20616c72656164792065786973745f8201527f7300000000000000000000000000000000000000000000000000000000000000602082015250565b5f618c39602183615e94565b9150618c4482618bdf565b604082019050919050565b5f6020820190508181035f830152618c6681618c2d565b9050919050565b5f61012082019050618c815f83018c615f7b565b618c8e602083018b615fba565b8181036040830152618ca0818a6168fe565b90508181036060830152618cb481896169b5565b90508181036080830152618cc88188616aa1565b905081810360a0830152618cdc8187616bae565b9050618ceb60c0830186615f7b565b618cf860e0830185615f7b565b818103610100830152618d0b8184616422565b90509a9950505050505050505050565b5f60a082019050618d2e5f83018861687b565b618d3b602083018761687b565b618d48604083018661687b565b618d556060830185615f7b565b618d626080830184615fba565b9695505050505050565b7f53616665436173743a2076616c756520646f65736e27742066697420696e20395f8201527f3620626974730000000000000000000000000000000000000000000000000000602082015250565b5f618dc6602683615e94565b9150618dd182618d6c565b604082019050919050565b5f6020820190508181035f830152618df381618dba565b9050919050565b7f436865636b706f696e743a2064656372656173696e67206b65797300000000005f82015250565b5f618e2e601b83615e94565b9150618e3982618dfa565b602082019050919050565b5f6020820190508181035f830152618e5b81618e22565b9050919050565b7f53616665436173743a2076616c756520646f65736e27742066697420696e20365f8201527f3420626974730000000000000000000000000000000000000000000000000000602082015250565b5f618ebc602683615e94565b9150618ec782618e62565b604082019050919050565b5f6020820190508181035f830152618ee981618eb0565b9050919050565b7f476f7665726e6f723a2070726f706f73616c206e6f74206163746976650000005f82015250565b5f618f24601d83615e94565b9150618f2f82618ef0565b602082019050919050565b5f6020820190508181035f830152618f5181618f18565b9050919050565b5f819050815f5260205f209050919050565b5f6020601f8301049050919050565b5f82821b905092915050565b5f60088302618fb47fffffffffffffffffffffffffffffffffffffffffffffffffffffffffffffffff82618f79565b618fbe8683618f79565b95508019841693508086168417925050509392505050565b5f618ff0618feb618fe684615f1d565b617177565b615f1d565b9050919050565b5f819050919050565b61900983618fd6565b61901d61901582618ff7565b848454618f85565b825550505050565b5f5f905090565b619034619025565b61903f818484619000565b505050565b5b81811015619062576190575f8261902c565b600181019050619045565b5050565b601f8211156190a75761907881618f58565b61908184618f6a565b81016020851015619090578190505b6190a461909c85618f6a565b830182619044565b50505b505050565b5f82821c905092915050565b5f6190c75f19846008026190ac565b1980831691505092915050565b5f6190df83836190b8565b9150826002028217905092915050565b6190f88261640a565b67ffffffffffffffff811115619111576191106161da565b5b61911b8254617933565b619126828285619066565b5f60209050601f831160018114619157575f8415619145578287015190505b61914f85826190d4565b8655506191b6565b601f19841661916586618f58565b5f5b8281101561918c57848901518255600182019150602085019450602081019050619167565b868310156191a957848901516191a5601f8916826190b8565b8355505b6001600288020188555050505b505050505050565b5f819050815f5260205f209050919050565b601f821115619211576191e2816191be565b6191eb84618f6a565b810160208510156191fa578190505b61920e61920685618f6a565b830182619044565b50505b505050565b61921f82616b3d565b67ffffffffffffffff811115619238576192376161da565b5b6192428254617933565b61924d8282856191d0565b5f60209050601f83116001811461927e575f841561926c578287015190505b61927685826190d4565b8655506192dd565b601f19841661928c866191be565b5f5b828110156192b35784890151825560018201915060208501945060208101905061928e565b868310156192d057848901516192cc601f8916826190b8565b8355505b6001600288020188555050505b50505050505056fe476f7665726e6f723a2072656c617920726576657274656420776974686f7574206d657373616765a2646970667358221220200292abc7863e4dc0e242d3fb0b2e7b0ca939c5cfbed1b506a7f1bf9cf702fb64736f6c634300081e0033","linkReferences":{}},"methodIdentifiers":{"BALLOT_TYPEHASH()":"deaaa7cc","CLOCK_MODE()":"4bf5d7e9","COUNTING_MODE()":"dd4e2ba5","EXTENDED_BALLOT_TYPEHASH()":"2fe3e261","MAX_MINT_RATE()":"dc553e4a","MIN_MINT_RATE()":"365776f3","cancel(address[],uint256[],bytes[],bytes32)":"452115d6","cancel(uint256)":"40e58ee5","casino()":"9403e8dd","castVote(uint256,uint8)":"56781388","castVoteBySig(uint256,uint8,uint8,bytes32,bytes32)":"3bccf4fd","castVoteWithReason(uint256,uint8,string)":"7b3c71d3","castVoteWithReasonAndParams(uint256,uint8,string,bytes)":"5f398a14","castVoteWithReasonAndParamsBySig(uint256,uint8,string,bytes,uint8,bytes32,bytes32)":"03420181","clock()":"91ddadf4","eip712Domain()":"84b0196e","execute(address[],uint256[],bytes[],bytes32)":"2656227d","execute(uint256)":"fe0d94c1","getActions(uint256)":"328dd982","getReceipt(uint256,address)":"e23a9a52","getVotes(address,uint256)":"eb9019d4","getVotesWithParams(address,uint256,bytes)":"9a802a6d","hasVoted(uint256,address)":"43859632","hashProposal(address[],uint256[],bytes[],bytes32)":"c59057e4","name()":"06fdde03","onERC1155BatchReceived(address,address,uint256[],uint256[],bytes)":"bc197c81","onERC1155Received(address,address,uint256,uint256,bytes)":"f23a6e61","onERC721Received(address,address,uint256,bytes)":"150b7a02","proposalDeadline(uint256)":"c01f9e37","proposalEta(uint256)":"ab58fb8e","proposalProposer(uint256)":"143489d0","proposalSnapshot(uint256)":"2d63f693","proposalThreshold()":"b58131b0","proposals(uint256)":"013cf08b","propose(address[],uint256[],bytes[],string)":"7d5e81e2","propose(address[],uint256[],string[],bytes[],string)":"da95691a","proposeNewMintRate(uint256)":"ddfa413a","queue(address[],uint256[],bytes[],bytes32)":"160cbed7","queue(uint256)":"ddf0b009","quorum(uint256)":"f8ce560a","quorumDenominator()":"97c3d334","quorumNumerator()":"a7713a70","quorumNumerator(uint256)":"60c4247f","quorumVotes()":"24bc1a64","relay(address,uint256,bytes)":"c28bc2fa","state(uint256)":"3e4f49e6","supportsInterface(bytes4)":"01ffc9a7","timelock()":"d33219b4","toString(uint256)":"6900a3ae","token()":"fc0c546a","updateQuorumNumerator(uint256)":"06f3f9e6","updateTimelock(address)":"a890c910","version()":"54fd4d50","votingDelay()":"3932abb1","votingPeriod()":"02a251a3"},"id":73}