{"abi":[{"type":"constructor","inputs":[],"stateMutability":"nonpayable"},{"type":"function","name":"CLOCK_MODE","inputs":[],"outputs":[{"name":"","type":"string","internalType":"string"}],"stateMutability":"view"},{"type":"function","name":"DOMAIN_SEPARATOR","inputs":[],"outputs":[{"name":"","type":"bytes32","internalType":"bytes32"}],"stateMutability":"view"},{"type":"function","name":"allowance","inputs":[{"name":"owner","type":"address","internalType":"address"},{"name":"spender","type":"address","internalType":"address"}],"outputs":[{"name":"","type":"uint256","internalType":"uint256"}],"stateMutability":"view"},{"type":"function","name":"approve","inputs":[{"name":"spender","type":"address","internalType":"address"},{"name":"amount","type":"uint256","internalType":"uint256"}],"outputs":[{"name":"","type":"bool","internalType":"bool"}],"stateMutability":"nonpayable"},{"type":"function","name":"balanceOf","inputs":[{"name":"account","type":"address","internalType":"address"}],"outputs":[{"name":"","type":"uint256","internalType":"uint256"}],"stateMutability":"view"},{"type":"function","name":"burnFrom","inputs":[{"name":"account","type":"address","internalType":"address"},{"name":"amount","type":"uint256","internalType":"uint256"}],"outputs":[],"stateMutability":"nonpayable"},{"type":"function","name":"casino","inputs":[],"outputs":[{"name":"","type":"address","internalType":"address"}],"stateMutability":"view"},{"type":"function","name":"checkpoints","inputs":[{"name":"account","type":"address","internalType":"address"},{"name":"pos","type":"uint32","internalType":"uint32"}],"outputs":[{"name":"","type":"tuple","internalType":"struct ERC20Votes.Checkpoint","components":[{"name":"fromBlock","type":"uint32","internalType":"uint32"},{"name":"votes","type":"uint224","internalType":"uint224"}]}],"stateMutability":"view"},{"type":"function","name":"clock","inputs":[],"outputs":[{"name":"","type":"uint48","internalType":"uint48"}],"stateMutability":"view"},{"type":"function","name":"decimals","inputs":[],"outputs":[{"name":"","type":"uint8","internalType":"uint8"}],"stateMutability":"view"},{"type":"function","name":"decreaseAllowance","inputs":[{"name":"spender","type":"address","internalType":"address"},{"name":"subtractedValue","type":"uint256","internalType":"uint256"}],"outputs":[{"name":"","type":"bool","internalType":"bool"}],"stateMutability":"nonpayable"},{"type":"function","name":"delegate","inputs":[{"name":"delegatee","type":"address","internalType":"address"}],"outputs":[],"stateMutability":"nonpayable"},{"type":"function","name":"delegateBySig","inputs":[{"name":"delegatee","type":"address","internalType":"address"},{"name":"nonce","type":"uint256","internalType":"uint256"},{"name":"expiry","type":"uint256","internalType":"uint256"},{"name":"v","type":"uint8","internalType":"uint8"},{"name":"r","type":"bytes32","internalType":"bytes32"},{"name":"s","type":"bytes32","internalType":"bytes32"}],"outputs":[],"stateMutability":"nonpayable"},{"type":"function","name":"delegates","inputs":[{"name":"account","type":"address","internalType":"address"}],"outputs":[{"name":"","type":"address","internalType":"address"}],"stateMutability":"view"},{"type":"function","name":"eip712Domain","inputs":[],"outputs":[{"name":"fields","type":"bytes1","internalType":"bytes1"},{"name":"name","type":"string","internalType":"string"},{"name":"version","type":"string","internalType":"string"},{"name":"chainId","type":"uint256","internalType":"uint256"},{"name":"verifyingContract","type":"address","internalType":"address"},{"name":"salt","type":"bytes32","internalType":"bytes32"},{"name":"extensions","type":"uint256[]","internalType":"uint256[]"}],"stateMutability":"view"},{"type":"function","name":"getPastTotalSupply","inputs":[{"name":"timepoint","type":"uint256","internalType":"uint256"}],"outputs":[{"name":"","type":"uint256","internalType":"uint256"}],"stateMutability":"view"},{"type":"function","name":"getPastVotes","inputs":[{"name":"account","type":"address","internalType":"address"},{"name":"timepoint","type":"uint256","internalType":"uint256"}],"outputs":[{"name":"","type":"uint256","internalType":"uint256"}],"stateMutability":"view"},{"type":"function","name":"getVotes","inputs":[{"name":"account","type":"address","internalType":"address"}],"outputs":[{"name":"","type":"uint256","internalType":"uint256"}],"stateMutability":"view"},{"type":"function","name":"increaseAllowance","inputs":[{"name":"spender","type":"address","internalType":"address"},{"name":"addedValue","type":"uint256","internalType":"uint256"}],"outputs":[{"name":"","type":"bool","internalType":"bool"}],"stateMutability":"nonpayable"},{"type":"function","name":"mint","inputs":[{"name":"to","type":"address","internalType":"address"},{"name":"amount","type":"uint256","internalType":"uint256"}],"outputs":[],"stateMutability":"nonpayable"},{"type":"function","name":"name","inputs":[],"outputs":[{"name":"","type":"string","internalType":"string"}],"stateMutability":"view"},{"type":"function","name":"nonces","inputs":[{"name":"owner","type":"address","internalType":"address"}],"outputs":[{"name":"","type":"uint256","internalType":"uint256"}],"stateMutability":"view"},{"type":"function","name":"numCheckpoints","inputs":[{"name":"account","type":"address","internalType":"address"}],"outputs":[{"name":"","type":"uint32","internalType":"uint32"}],"stateMutability":"view"},{"type":"function","name":"owner","inputs":[],"outputs":[{"name":"","type":"address","internalType":"address"}],"stateMutability":"view"},{"type":"function","name":"permit","inputs":[{"name":"owner","type":"address","internalType":"address"},{"name":"spender","type":"address","internalType":"address"},{"name":"value","type":"uint256","internalType":"uint256"},{"name":"deadline","type":"uint256","internalType":"uint256"},{"name":"v","type":"uint8","internalType":"uint8"},{"name":"r","type":"bytes32","internalType":"bytes32"},{"name":"s","type":"bytes32","internalType":"bytes32"}],"outputs":[],"stateMutability":"nonpayable"},{"type":"function","name":"renounceOwnership","inputs":[],"outputs":[],"stateMutability":"nonpayable"},{"type":"function","name":"setCasino","inputs":[{"name":"_casino","type":"address","internalType":"address"}],"outputs":[],"stateMutability":"nonpayable"},{"type":"function","name":"symbol","inputs":[],"outputs":[{"name":"","type":"string","internalType":"string"}],"stateMutability":"view"},{"type":"function","name":"totalSupply","inputs":[],"outputs":[{"name":"","type":"uint256","internalType":"uint256"}],"stateMutability":"view"},{"type":"function","name":"transfer","inputs":[{"name":"to","type":"address","internalType":"address"},{"name":"amount","type":"uint256","internalType":"uint256"}],"outputs":[{"name":"","type":"bool","internalType":"bool"}],"stateMutability":"nonpayable"},{"type":"function","name":"transferFrom","inputs":[{"name":"from","type":"address","internalType":"address"},{"name":"to","type":"address","internalType":"address"},{"name":"amount","type":"uint256","internalType":"uint256"}],"outputs":[{"name":"","type":"bool","internalType":"bool"}],"stateMutability":"nonpayable"},{"type":"function","name":"transferOwnership","inputs":[{"name":"newOwner","type":"address","internalType":"address"}],"outputs":[],"stateMutability":"nonpayable"},{"type":"event","name":"Approval","inputs":[{"name":"owner","type":"address","indexed":true,"internalType":"address"},{"name":"spender","type":"address","indexed":true,"internalType":"address"},{"name":"value","type":"uint256","indexed":false,"internalType":"uint256"}],"anonymous":false},{"type":"event","name":"CasinoSet","inputs":[{"name":"casino","type":"address","indexed":true,"internalType":"address"}],"anonymous":false},{"type":"event","name":"DelegateChanged","inputs":[{"name":"delegator","type":"address","indexed":true,"internalType":"address"},{"name":"fromDelegate","type":"address","indexed":true,"internalType":"address"},{"name":"toDelegate","type":"address","indexed":true,"internalType":"address"}],"anonymous":false},{"type":"event","name":"DelegateVotesChanged","inputs":[{"name":"delegate","type":"address","indexed":true,"internalType":"address"},{"name":"previousBalance","type":"uint256","indexed":false,"internalType":"uint256"},{"name":"newBalance","type":"uint256","indexed":false,"internalType":"uint256"}],"anonymous":false},{"type":"event","name":"EIP712DomainChanged","inputs":[],"anonymous":false},{"type":"event","name":"OwnershipTransferred","inputs":[{"name":"previousOwner","type":"address","indexed":true,"internalType":"address"},{"name":"newOwner","type":"address","indexed":true,"internalType":"address"}],"anonymous":false},{"type":"event","name":"TokenMinted","inputs":[{"name":"to","type":"address","indexed":true,"internalType":"address"},{"name":"amount","type":"uint256","indexed":false,"internalType":"uint256"}],"anonymous":false},{"type":"event","name":"Transfer","inputs":[{"name":"from","type":"address","indexed":true,"internalType":"address"},{"name":"to","type":"address","indexed":true,"internalType":"address"},{"name":"value","type":"uint256","indexed":false,"internalType":"uint256"}],"anonymous":false},{"type":"error","name":"InvalidShortString","inputs":[]},{"type":"error","name":"NotCasino","inputs":[]},{"type":"error","name":"StringTooLong","inputs":[{"name":"str","type":"string","internalType":"string"}]}],"bytecode":{"object":"0x610160604052348015610010575f5ffd5b506040518060400160405280600a81526020017f486f757365546f6b656e00000000000000000000000000000000000000000000815250806040518060400160405280600181526020017f31000000000000000000000000000000000000000000000000000000000000008152506040518060400160405280600a81526020017f486f757365546f6b656e000000000000000000000000000000000000000000008152506040518060400160405280600581526020017f484f55534500000000000000000000000000000000000000000000000000000081525081600390816100f991906105f4565b50806004908161010991906105f4565b5050506101206005836101d860201b90919060201c565b610120818152505061013c6006826101d860201b90919060201c565b6101408181525050818051906020012060e08181525050808051906020012061010081815250504660a0818152505061017961022560201b60201c565b608081815250503073ffffffffffffffffffffffffffffffffffffffff1660c08173ffffffffffffffffffffffffffffffffffffffff16815250505050506101d36101c861027f60201b60201c565b61028660201b60201c565b610893565b5f6020835110156101f9576101f28361034960201b60201c565b905061021f565b82610209836103ae60201b60201c565b5f01908161021791906105f4565b5060ff5f1b90505b92915050565b5f7f8b73c3c69bb8fe3d512ecc4cf759cc79239f7b179b0ffacaa9a75d522b39400f60e051610100514630604051602001610264959493929190610729565b60405160208183030381529060405280519060200120905090565b5f33905090565b5f600c5f9054906101000a900473ffffffffffffffffffffffffffffffffffffffff16905081600c5f6101000a81548173ffffffffffffffffffffffffffffffffffffffff021916908373ffffffffffffffffffffffffffffffffffffffff1602179055508173ffffffffffffffffffffffffffffffffffffffff168173ffffffffffffffffffffffffffffffffffffffff167f8be0079c531659141344cd1fd0a4f28419497f9722a3daafe3b4186f6b6457e060405160405180910390a35050565b5f5f829050601f8151111561039557826040517f305a27a900000000000000000000000000000000000000000000000000000000815260040161038c91906107e0565b60405180910390fd5b8051816103a19061082d565b5f1c175f1b915050919050565b5f819050919050565b5f81519050919050565b7f4e487b71000000000000000000000000000000000000000000000000000000005f52604160045260245ffd5b7f4e487b71000000000000000000000000000000000000000000000000000000005f52602260045260245ffd5b5f600282049050600182168061043257607f821691505b602082108103610445576104446103ee565b5b50919050565b5f819050815f5260205f209050919050565b5f6020601f8301049050919050565b5f82821b905092915050565b5f600883026104a77fffffffffffffffffffffffffffffffffffffffffffffffffffffffffffffffff8261046c565b6104b1868361046c565b95508019841693508086168417925050509392505050565b5f819050919050565b5f819050919050565b5f6104f56104f06104eb846104c9565b6104d2565b6104c9565b9050919050565b5f819050919050565b61050e836104db565b61052261051a826104fc565b848454610478565b825550505050565b5f5f905090565b61053961052a565b610544818484610505565b505050565b5b818110156105675761055c5f82610531565b60018101905061054a565b5050565b601f8211156105ac5761057d8161044b565b6105868461045d565b81016020851015610595578190505b6105a96105a18561045d565b830182610549565b50505b505050565b5f82821c905092915050565b5f6105cc5f19846008026105b1565b1980831691505092915050565b5f6105e483836105bd565b9150826002028217905092915050565b6105fd826103b7565b67ffffffffffffffff811115610616576106156103c1565b5b610620825461041b565b61062b82828561056b565b5f60209050601f83116001811461065c575f841561064a578287015190505b61065485826105d9565b8655506106bb565b601f19841661066a8661044b565b5f5b828110156106915784890151825560018201915060208501945060208101905061066c565b868310156106ae57848901516106aa601f8916826105bd565b8355505b6001600288020188555050505b505050505050565b5f819050919050565b6106d5816106c3565b82525050565b6106e4816104c9565b82525050565b5f73ffffffffffffffffffffffffffffffffffffffff82169050919050565b5f610713826106ea565b9050919050565b61072381610709565b82525050565b5f60a08201905061073c5f8301886106cc565b61074960208301876106cc565b61075660408301866106cc565b61076360608301856106db565b610770608083018461071a565b9695505050505050565b5f82825260208201905092915050565b8281835e5f83830152505050565b5f601f19601f8301169050919050565b5f6107b2826103b7565b6107bc818561077a565b93506107cc81856020860161078a565b6107d581610798565b840191505092915050565b5f6020820190508181035f8301526107f881846107a8565b905092915050565b5f81519050919050565b5f819050602082019050919050565b5f61082482516106c3565b80915050919050565b5f61083782610800565b826108418461080a565b905061084c81610819565b9250602082101561088c576108877fffffffffffffffffffffffffffffffffffffffffffffffffffffffffffffffff8360200360080261046c565b831692505b5050919050565b60805160a05160c05160e0516101005161012051610140516146e66108e45f395f610ba301525f610b6f01525f61200b01525f611fea01525f61195001525f6119a601525f6119cf01526146e65ff3fe608060405234801561000f575f5ffd5b50600436106101ee575f3560e01c80637ecebe001161010d578063a457c2d7116100a0578063d7b9cc241161006f578063d7b9cc24146105fa578063dd62ed3e14610616578063f1127ed814610646578063f2fde38b14610676576101ee565b8063a457c2d714610562578063a9059cbb14610592578063c3cda520146105c2578063d505accf146105de576101ee565b806391ddadf4116100dc57806391ddadf4146104d85780639403e8dd146104f657806395d89b41146105145780639ab24eb014610532576101ee565b80637ecebe001461043657806384b0196e146104665780638da5cb5b1461048a5780638e539e8c146104a8576101ee565b806340c10f19116101855780636fcfff45116101545780636fcfff45146103b057806370a08231146103e0578063715018a61461041057806379cc67901461041a576101ee565b806340c10f191461032a5780634bf5d7e914610346578063587cde1e146103645780635c19a95c14610394576101ee565b8063313ce567116101c1578063313ce5671461028e5780633644e515146102ac57806339509351146102ca5780633a46b1a8146102fa576101ee565b806306fdde03146101f2578063095ea7b31461021057806318160ddd1461024057806323b872dd1461025e575b5f5ffd5b6101fa610692565b6040516102079190612fd0565b60405180910390f35b61022a60048036038101906102259190613081565b610722565b60405161023791906130d9565b60405180910390f35b610248610744565b6040516102559190613101565b60405180910390f35b6102786004803603810190610273919061311a565b61074d565b60405161028591906130d9565b60405180910390f35b61029661077b565b6040516102a39190613185565b60405180910390f35b6102b4610783565b6040516102c191906131b6565b60405180910390f35b6102e460048036038101906102df9190613081565b610791565b6040516102f191906130d9565b60405180910390f35b610314600480360381019061030f9190613081565b6107c7565b6040516103219190613101565b60405180910390f35b610344600480360381019061033f9190613081565b610867565b005b61034e610949565b60405161035b9190612fd0565b60405180910390f35b61037e600480360381019061037991906131cf565b6109d7565b60405161038b9190613209565b60405180910390f35b6103ae60048036038101906103a991906131cf565b610a3c565b005b6103ca60048036038101906103c591906131cf565b610a50565b6040516103d79190613240565b60405180910390f35b6103fa60048036038101906103f591906131cf565b610aa1565b6040516104079190613101565b60405180910390f35b610418610ae6565b005b610434600480360381019061042f9190613081565b610af9565b005b610450600480360381019061044b91906131cf565b610b12565b60405161045d9190613101565b60405180910390f35b61046e610b5f565b604051610481979695949392919061334a565b60405180910390f35b610492610c5c565b60405161049f9190613209565b60405180910390f35b6104c260048036038101906104bd91906133cc565b610c84565b6040516104cf9190613101565b60405180910390f35b6104e0610ce8565b6040516104ed9190613417565b60405180910390f35b6104fe610cf7565b60405161050b9190613209565b60405180910390f35b61051c610d1c565b6040516105299190612fd0565b60405180910390f35b61054c600480360381019061054791906131cf565b610dac565b6040516105599190613101565b60405180910390f35b61057c60048036038101906105779190613081565b610eaa565b60405161058991906130d9565b60405180910390f35b6105ac60048036038101906105a79190613081565b610f1f565b6040516105b991906130d9565b60405180910390f35b6105dc60048036038101906105d79190613484565b610f41565b005b6105f860048036038101906105f3919061350d565b611044565b005b610614600480360381019061060f91906131cf565b611183565b005b610630600480360381019061062b91906135aa565b61127f565b60405161063d9190613101565b60405180910390f35b610660600480360381019061065b9190613612565b611301565b60405161066d91906136c2565b60405180910390f35b610690600480360381019061068b91906131cf565b61140a565b005b6060600380546106a190613708565b80601f01602080910402602001604051908101604052809291908181526020018280546106cd90613708565b80156107185780601f106106ef57610100808354040283529160200191610718565b820191905f5260205f20905b8154815290600101906020018083116106fb57829003601f168201915b5050505050905090565b5f5f61072c61148c565b9050610739818585611493565b600191505092915050565b5f600254905090565b5f5f61075761148c565b9050610764858285611656565b61076f8585856116e1565b60019150509392505050565b5f6012905090565b5f61078c61194d565b905090565b5f5f61079b61148c565b90506107bc8185856107ad858961127f565b6107b79190613765565b611493565b600191505092915050565b5f6107d0610ce8565b65ffffffffffff168210610819576040517f08c379a0000000000000000000000000000000000000000000000000000000008152600401610810906137e2565b60405180910390fd5b61085f600a5f8573ffffffffffffffffffffffffffffffffffffffff1673ffffffffffffffffffffffffffffffffffffffff1681526020019081526020015f2083611a03565b905092915050565b600d5f9054906101000a900473ffffffffffffffffffffffffffffffffffffffff1673ffffffffffffffffffffffffffffffffffffffff163373ffffffffffffffffffffffffffffffffffffffff16146108ed576040517f0b81425300000000000000000000000000000000000000000000000000000000815260040160405180910390fd5b6108f78282611b43565b8173ffffffffffffffffffffffffffffffffffffffff167fb9144c96c86541f6fa89c9f2f02495cccf4b08cd6643e26d34ee00aa586558a88260405161093d9190613101565b60405180910390a25050565b606043610954610ce8565b65ffffffffffff161461099c576040517f08c379a00000000000000000000000000000000000000000000000000000000081526004016109939061384a565b60405180910390fd5b6040518060400160405280601d81526020017f6d6f64653d626c6f636b6e756d6265722666726f6d3d64656661756c74000000815250905090565b5f60095f8373ffffffffffffffffffffffffffffffffffffffff1673ffffffffffffffffffffffffffffffffffffffff1681526020019081526020015f205f9054906101000a900473ffffffffffffffffffffffffffffffffffffffff169050919050565b610a4d610a4761148c565b82611b51565b50565b5f610a9a600a5f8473ffffffffffffffffffffffffffffffffffffffff1673ffffffffffffffffffffffffffffffffffffffff1681526020019081526020015f2080549050611c66565b9050919050565b5f5f5f8373ffffffffffffffffffffffffffffffffffffffff1673ffffffffffffffffffffffffffffffffffffffff1681526020019081526020015f20549050919050565b610aee611cb8565b610af75f611d36565b565b610b04823383611656565b610b0e8282611df9565b5050565b5f610b5860075f8473ffffffffffffffffffffffffffffffffffffffff1673ffffffffffffffffffffffffffffffffffffffff1681526020019081526020015f20611e07565b9050919050565b5f6060805f5f5f6060610b9c60057f0000000000000000000000000000000000000000000000000000000000000000611e1390919063ffffffff16565b610bd060067f0000000000000000000000000000000000000000000000000000000000000000611e1390919063ffffffff16565b46305f5f1b5f67ffffffffffffffff811115610bef57610bee613868565b5b604051908082528060200260200182016040528015610c1d5781602001602082028036833780820191505090505b507f0f00000000000000000000000000000000000000000000000000000000000000959493929190965096509650965096509650965090919293949596565b5f600c5f9054906101000a900473ffffffffffffffffffffffffffffffffffffffff16905090565b5f610c8d610ce8565b65ffffffffffff168210610cd6576040517f08c379a0000000000000000000000000000000000000000000000000000000008152600401610ccd906137e2565b60405180910390fd5b610ce1600b83611a03565b9050919050565b5f610cf243611ec0565b905090565b600d5f9054906101000a900473ffffffffffffffffffffffffffffffffffffffff1681565b606060048054610d2b90613708565b80601f0160208091040260200160405190810160405280929190818152602001828054610d5790613708565b8015610da25780601f10610d7957610100808354040283529160200191610da2565b820191905f5260205f20905b815481529060010190602001808311610d8557829003601f168201915b5050505050905090565b5f5f600a5f8473ffffffffffffffffffffffffffffffffffffffff1673ffffffffffffffffffffffffffffffffffffffff1681526020019081526020015f208054905090505f8114610e8257600a5f8473ffffffffffffffffffffffffffffffffffffffff1673ffffffffffffffffffffffffffffffffffffffff1681526020019081526020015f206001820381548110610e4a57610e49613895565b5b905f5260205f20015f0160049054906101000a90047bffffffffffffffffffffffffffffffffffffffffffffffffffffffff16610e84565b5f5b7bffffffffffffffffffffffffffffffffffffffffffffffffffffffff16915050919050565b5f5f610eb461148c565b90505f610ec1828661127f565b905083811015610f06576040517f08c379a0000000000000000000000000000000000000000000000000000000008152600401610efd90613932565b60405180910390fd5b610f138286868403611493565b60019250505092915050565b5f5f610f2961148c565b9050610f368185856116e1565b600191505092915050565b83421115610f84576040517f08c379a0000000000000000000000000000000000000000000000000000000008152600401610f7b9061399a565b60405180910390fd5b5f610fe5610fdd7fe48329057bfd03d55e49b547132e39cffd9c1820ad7b9d4c5307691425d15adf898989604051602001610fc294939291906139b8565b60405160208183030381529060405280519060200120611f14565b858585611f2d565b9050610ff081611f56565b8614611031576040517f08c379a000000000000000000000000000000000000000000000000000000000815260040161102890613a45565b60405180910390fd5b61103b8188611b51565b50505050505050565b83421115611087576040517f08c379a000000000000000000000000000000000000000000000000000000000815260040161107e90613aad565b60405180910390fd5b5f7f6e71edae12b1b97f4d1f60370fef10105fa2faae0126114a169c64845d6126c98888886110b58c611f56565b896040516020016110cb96959493929190613acb565b6040516020818303038152906040528051906020012090505f6110ed82611f14565b90505f6110fc82878787611f2d565b90508973ffffffffffffffffffffffffffffffffffffffff168173ffffffffffffffffffffffffffffffffffffffff161461116c576040517f08c379a000000000000000000000000000000000000000000000000000000000815260040161116390613b74565b60405180910390fd5b6111778a8a8a611493565b50505050505050505050565b61118b611cb8565b5f73ffffffffffffffffffffffffffffffffffffffff168173ffffffffffffffffffffffffffffffffffffffff16036111f9576040517f08c379a00000000000000000000000000000000000000000000000000000000081526004016111f090613bdc565b60405180910390fd5b80600d5f6101000a81548173ffffffffffffffffffffffffffffffffffffffff021916908373ffffffffffffffffffffffffffffffffffffffff1602179055508073ffffffffffffffffffffffffffffffffffffffff167f2fab8b7b14ea610eca2edd0f797f8e6eb64241b41cfdfcab21d25d657e818f9060405160405180910390a250565b5f60015f8473ffffffffffffffffffffffffffffffffffffffff1673ffffffffffffffffffffffffffffffffffffffff1681526020019081526020015f205f8373ffffffffffffffffffffffffffffffffffffffff1673ffffffffffffffffffffffffffffffffffffffff1681526020019081526020015f2054905092915050565b611309612f24565b600a5f8473ffffffffffffffffffffffffffffffffffffffff1673ffffffffffffffffffffffffffffffffffffffff1681526020019081526020015f208263ffffffff168154811061135e5761135d613895565b5b905f5260205f20016040518060400160405290815f82015f9054906101000a900463ffffffff1663ffffffff1663ffffffff1681526020015f820160049054906101000a90047bffffffffffffffffffffffffffffffffffffffffffffffffffffffff167bffffffffffffffffffffffffffffffffffffffffffffffffffffffff167bffffffffffffffffffffffffffffffffffffffffffffffffffffffff1681525050905092915050565b611412611cb8565b5f73ffffffffffffffffffffffffffffffffffffffff168173ffffffffffffffffffffffffffffffffffffffff1603611480576040517f08c379a000000000000000000000000000000000000000000000000000000000815260040161147790613c6a565b60405180910390fd5b61148981611d36565b50565b5f33905090565b5f73ffffffffffffffffffffffffffffffffffffffff168373ffffffffffffffffffffffffffffffffffffffff1603611501576040517f08c379a00000000000000000000000000000000000000000000000000000000081526004016114f890613cf8565b60405180910390fd5b5f73ffffffffffffffffffffffffffffffffffffffff168273ffffffffffffffffffffffffffffffffffffffff160361156f576040517f08c379a000000000000000000000000000000000000000000000000000000000815260040161156690613d86565b60405180910390fd5b8060015f8573ffffffffffffffffffffffffffffffffffffffff1673ffffffffffffffffffffffffffffffffffffffff1681526020019081526020015f205f8473ffffffffffffffffffffffffffffffffffffffff1673ffffffffffffffffffffffffffffffffffffffff1681526020019081526020015f20819055508173ffffffffffffffffffffffffffffffffffffffff168373ffffffffffffffffffffffffffffffffffffffff167f8c5be1e5ebec7d5bd14f71427d1e84f3dd0314c0f7b2291e5b200ac8c7c3b925836040516116499190613101565b60405180910390a3505050565b5f611661848461127f565b90507fffffffffffffffffffffffffffffffffffffffffffffffffffffffffffffffff81146116db57818110156116cd576040517f08c379a00000000000000000000000000000000000000000000000000000000081526004016116c490613dee565b60405180910390fd5b6116da8484848403611493565b5b50505050565b5f73ffffffffffffffffffffffffffffffffffffffff168373ffffffffffffffffffffffffffffffffffffffff160361174f576040517f08c379a000000000000000000000000000000000000000000000000000000000815260040161174690613e7c565b60405180910390fd5b5f73ffffffffffffffffffffffffffffffffffffffff168273ffffffffffffffffffffffffffffffffffffffff16036117bd576040517f08c379a00000000000000000000000000000000000000000000000000000000081526004016117b490613f0a565b60405180910390fd5b6117c8838383611fb1565b5f5f5f8573ffffffffffffffffffffffffffffffffffffffff1673ffffffffffffffffffffffffffffffffffffffff1681526020019081526020015f205490508181101561184b576040517f08c379a000000000000000000000000000000000000000000000000000000000815260040161184290613f98565b60405180910390fd5b8181035f5f8673ffffffffffffffffffffffffffffffffffffffff1673ffffffffffffffffffffffffffffffffffffffff1681526020019081526020015f2081905550815f5f8573ffffffffffffffffffffffffffffffffffffffff1673ffffffffffffffffffffffffffffffffffffffff1681526020019081526020015f205f82825401925050819055508273ffffffffffffffffffffffffffffffffffffffff168473ffffffffffffffffffffffffffffffffffffffff167fddf252ad1be2c89b69c2b068fc378daa952ba7f163c4a11628f55a4df523b3ef846040516119349190613101565b60405180910390a3611947848484611fb6565b50505050565b5f7f000000000000000000000000000000000000000000000000000000000000000073ffffffffffffffffffffffffffffffffffffffff163073ffffffffffffffffffffffffffffffffffffffff161480156119c857507f000000000000000000000000000000000000000000000000000000000000000046145b156119f5577f00000000000000000000000000000000000000000000000000000000000000009050611a00565b6119fd611fc6565b90505b90565b5f5f838054905090505f5f90505f8290506005831115611a77575f611a278461205b565b84611a329190613fb6565b905085611a3f8883612151565b5f015f9054906101000a900463ffffffff1663ffffffff161115611a6557809150611a75565b600181611a729190613765565b92505b505b5b80821015611ad4575f611a8b8383612163565b905085611a988883612151565b5f015f9054906101000a900463ffffffff1663ffffffff161115611abe57809150611ace565b600181611acb9190613765565b92505b50611a78565b5f8114611b1857611ae88660018303612151565b5f0160049054906101000a90047bffffffffffffffffffffffffffffffffffffffffffffffffffffffff16611b1a565b5f5b7bffffffffffffffffffffffffffffffffffffffffffffffffffffffff16935050505092915050565b611b4d8282612188565b5050565b5f611b5b836109d7565b90505f611b6784610aa1565b90508260095f8673ffffffffffffffffffffffffffffffffffffffff1673ffffffffffffffffffffffffffffffffffffffff1681526020019081526020015f205f6101000a81548173ffffffffffffffffffffffffffffffffffffffff021916908373ffffffffffffffffffffffffffffffffffffffff1602179055508273ffffffffffffffffffffffffffffffffffffffff168273ffffffffffffffffffffffffffffffffffffffff168573ffffffffffffffffffffffffffffffffffffffff167f3134e8a2e6d97e929a7e54011ea5485d7d196dd5f0ba4d4ef95803e8e3fc257f60405160405180910390a4611c60828483612215565b50505050565b5f63ffffffff8016821115611cb0576040517f08c379a0000000000000000000000000000000000000000000000000000000008152600401611ca790614059565b60405180910390fd5b819050919050565b611cc061148c565b73ffffffffffffffffffffffffffffffffffffffff16611cde610c5c565b73ffffffffffffffffffffffffffffffffffffffff1614611d34576040517f08c379a0000000000000000000000000000000000000000000000000000000008152600401611d2b906140c1565b60405180910390fd5b565b5f600c5f9054906101000a900473ffffffffffffffffffffffffffffffffffffffff16905081600c5f6101000a81548173ffffffffffffffffffffffffffffffffffffffff021916908373ffffffffffffffffffffffffffffffffffffffff1602179055508173ffffffffffffffffffffffffffffffffffffffff168173ffffffffffffffffffffffffffffffffffffffff167f8be0079c531659141344cd1fd0a4f28419497f9722a3daafe3b4186f6b6457e060405160405180910390a35050565b611e038282612405565b5050565b5f815f01549050919050565b606060ff5f1b8314611e2f57611e2883612423565b9050611eba565b818054611e3b90613708565b80601f0160208091040260200160405190810160405280929190818152602001828054611e6790613708565b8015611eb25780601f10611e8957610100808354040283529160200191611eb2565b820191905f5260205f20905b815481529060010190602001808311611e9557829003601f168201915b505050505090505b92915050565b5f65ffffffffffff8016821115611f0c576040517f08c379a0000000000000000000000000000000000000000000000000000000008152600401611f039061414f565b60405180910390fd5b819050919050565b5f611f26611f2061194d565b83612495565b9050919050565b5f5f5f611f3c878787876124d5565b91509150611f49816125ad565b8192505050949350505050565b5f5f60075f8473ffffffffffffffffffffffffffffffffffffffff1673ffffffffffffffffffffffffffffffffffffffff1681526020019081526020015f209050611fa081611e07565b9150611fab81612712565b50919050565b505050565b611fc1838383612726565b505050565b5f7f8b73c3c69bb8fe3d512ecc4cf759cc79239f7b179b0ffacaa9a75d522b39400f7f00000000000000000000000000000000000000000000000000000000000000007f0000000000000000000000000000000000000000000000000000000000000000463060405160200161204095949392919061416d565b60405160208183030381529060405280519060200120905090565b5f5f820361206b575f905061214c565b5f600161207784612751565b901c6001901b90506001818481612091576120906141be565b5b048201901c905060018184816120aa576120a96141be565b5b048201901c905060018184816120c3576120c26141be565b5b048201901c905060018184816120dc576120db6141be565b5b048201901c905060018184816120f5576120f46141be565b5b048201901c9050600181848161210e5761210d6141be565b5b048201901c90506001818481612127576121266141be565b5b048201901c905061214881828581612142576121416141be565b5b04612828565b9150505b919050565b5f825f528160205f2001905092915050565b5f600282841861217391906141eb565b8284166121809190613765565b905092915050565b6121928282612840565b61219a61298e565b7bffffffffffffffffffffffffffffffffffffffffffffffffffffffff166121c0610744565b1115612201576040517f08c379a00000000000000000000000000000000000000000000000000000000081526004016121f89061428b565b60405180910390fd5b61220f600b6129b1836129c6565b50505050565b8173ffffffffffffffffffffffffffffffffffffffff168373ffffffffffffffffffffffffffffffffffffffff161415801561225057505f81115b15612400575f73ffffffffffffffffffffffffffffffffffffffff168373ffffffffffffffffffffffffffffffffffffffff161461232a575f5f6122d3600a5f8773ffffffffffffffffffffffffffffffffffffffff1673ffffffffffffffffffffffffffffffffffffffff1681526020019081526020015f20612c8f856129c6565b915091508473ffffffffffffffffffffffffffffffffffffffff167fdec2bacdd2f05b59de34da9b523dff8be42e5e38e818c82fdb0bae774387a724838360405161231f9291906142a9565b60405180910390a250505b5f73ffffffffffffffffffffffffffffffffffffffff168273ffffffffffffffffffffffffffffffffffffffff16146123ff575f5f6123a8600a5f8673ffffffffffffffffffffffffffffffffffffffff1673ffffffffffffffffffffffffffffffffffffffff1681526020019081526020015f206129b1856129c6565b915091508373ffffffffffffffffffffffffffffffffffffffff167fdec2bacdd2f05b59de34da9b523dff8be42e5e38e818c82fdb0bae774387a72483836040516123f49291906142a9565b60405180910390a250505b5b505050565b61240f8282612ca4565b61241d600b612c8f836129c6565b50505050565b60605f61242f83612e67565b90505f602067ffffffffffffffff81111561244d5761244c613868565b5b6040519080825280601f01601f19166020018201604052801561247f5781602001600182028036833780820191505090505b5090508181528360208201528092505050919050565b5f6040517f190100000000000000000000000000000000000000000000000000000000000081528360028201528260228201526042812091505092915050565b5f5f7f7fffffffffffffffffffffffffffffff5d576e7357a4501ddfe92f46681b20a0835f1c111561250d575f6003915091506125a4565b5f6001878787876040515f815260200160405260405161253094939291906142d0565b6020604051602081039080840390855afa158015612550573d5f5f3e3d5ffd5b5050506020604051035190505f73ffffffffffffffffffffffffffffffffffffffff168173ffffffffffffffffffffffffffffffffffffffff160361259c575f600192509250506125a4565b805f92509250505b94509492505050565b5f60048111156125c0576125bf614313565b5b8160048111156125d3576125d2614313565b5b031561270f57600160048111156125ed576125ec614313565b5b816004811115612600576125ff614313565b5b03612640576040517f08c379a00000000000000000000000000000000000000000000000000000000081526004016126379061438a565b60405180910390fd5b6002600481111561265457612653614313565b5b81600481111561266757612666614313565b5b036126a7576040517f08c379a000000000000000000000000000000000000000000000000000000000815260040161269e906143f2565b60405180910390fd5b600360048111156126bb576126ba614313565b5b8160048111156126ce576126cd614313565b5b0361270e576040517f08c379a000000000000000000000000000000000000000000000000000000000815260040161270590614480565b60405180910390fd5b5b50565b6001815f015f828254019250508190555050565b612731838383612eb5565b61274c61273d846109d7565b612746846109d7565b83612215565b505050565b5f5f5f90505f608084901c111561277057608083901c92506080810190505b5f604084901c111561278a57604083901c92506040810190505b5f602084901c11156127a457602083901c92506020810190505b5f601084901c11156127be57601083901c92506010810190505b5f600884901c11156127d857600883901c92506008810190505b5f600484901c11156127f257600483901c92506004810190505b5f600284901c111561280c57600283901c92506002810190505b5f600184901c111561281f576001810190505b80915050919050565b5f8183106128365781612838565b825b905092915050565b5f73ffffffffffffffffffffffffffffffffffffffff168273ffffffffffffffffffffffffffffffffffffffff16036128ae576040517f08c379a00000000000000000000000000000000000000000000000000000000081526004016128a5906144e8565b60405180910390fd5b6128b95f8383611fb1565b8060025f8282546128ca9190613765565b92505081905550805f5f8473ffffffffffffffffffffffffffffffffffffffff1673ffffffffffffffffffffffffffffffffffffffff1681526020019081526020015f205f82825401925050819055508173ffffffffffffffffffffffffffffffffffffffff165f73ffffffffffffffffffffffffffffffffffffffff167fddf252ad1be2c89b69c2b068fc378daa952ba7f163c4a11628f55a4df523b3ef836040516129779190613101565b60405180910390a361298a5f8383611fb6565b5050565b5f7bffffffffffffffffffffffffffffffffffffffffffffffffffffffff905090565b5f81836129be9190613765565b905092915050565b5f5f5f858054905090505f5f8214612a86576129e58760018403612151565b6040518060400160405290815f82015f9054906101000a900463ffffffff1663ffffffff1663ffffffff1681526020015f820160049054906101000a90047bffffffffffffffffffffffffffffffffffffffffffffffffffffffff167bffffffffffffffffffffffffffffffffffffffffffffffffffffffff167bffffffffffffffffffffffffffffffffffffffffffffffffffffffff1681525050612ac0565b60405180604001604052805f63ffffffff1681526020015f7bffffffffffffffffffffffffffffffffffffffffffffffffffffffff168152505b905080602001517bffffffffffffffffffffffffffffffffffffffffffffffffffffffff169350612af584868863ffffffff16565b92505f82118015612b1d5750612b09610ce8565b65ffffffffffff16815f015163ffffffff16145b15612b8d57612b2b83612eba565b612b388860018503612151565b5f0160046101000a8154817bffffffffffffffffffffffffffffffffffffffffffffffffffffffff02191690837bffffffffffffffffffffffffffffffffffffffffffffffffffffffff160217905550612c85565b866040518060400160405280612bb1612ba4610ce8565b65ffffffffffff16611c66565b63ffffffff168152602001612bc586612eba565b7bffffffffffffffffffffffffffffffffffffffffffffffffffffffff16815250908060018154018082558091505060019003905f5260205f20015f909190919091505f820151815f015f6101000a81548163ffffffff021916908363ffffffff1602179055506020820151815f0160046101000a8154817bffffffffffffffffffffffffffffffffffffffffffffffffffffffff02191690837bffffffffffffffffffffffffffffffffffffffffffffffffffffffff16021790555050505b5050935093915050565b5f8183612c9c9190613fb6565b905092915050565b5f73ffffffffffffffffffffffffffffffffffffffff168273ffffffffffffffffffffffffffffffffffffffff1603612d12576040517f08c379a0000000000000000000000000000000000000000000000000000000008152600401612d0990614576565b60405180910390fd5b612d1d825f83611fb1565b5f5f5f8473ffffffffffffffffffffffffffffffffffffffff1673ffffffffffffffffffffffffffffffffffffffff1681526020019081526020015f2054905081811015612da0576040517f08c379a0000000000000000000000000000000000000000000000000000000008152600401612d9790614604565b60405180910390fd5b8181035f5f8573ffffffffffffffffffffffffffffffffffffffff1673ffffffffffffffffffffffffffffffffffffffff1681526020019081526020015f20819055508160025f82825403925050819055505f73ffffffffffffffffffffffffffffffffffffffff168373ffffffffffffffffffffffffffffffffffffffff167fddf252ad1be2c89b69c2b068fc378daa952ba7f163c4a11628f55a4df523b3ef84604051612e4f9190613101565b60405180910390a3612e62835f84611fb6565b505050565b5f5f60ff835f1c169050601f811115612eac576040517fb3512b0c00000000000000000000000000000000000000000000000000000000815260040160405180910390fd5b80915050919050565b505050565b5f7bffffffffffffffffffffffffffffffffffffffffffffffffffffffff8016821115612f1c576040517f08c379a0000000000000000000000000000000000000000000000000000000008152600401612f1390614692565b60405180910390fd5b819050919050565b60405180604001604052805f63ffffffff1681526020015f7bffffffffffffffffffffffffffffffffffffffffffffffffffffffff1681525090565b5f81519050919050565b5f82825260208201905092915050565b8281835e5f83830152505050565b5f601f19601f8301169050919050565b5f612fa282612f60565b612fac8185612f6a565b9350612fbc818560208601612f7a565b612fc581612f88565b840191505092915050565b5f6020820190508181035f830152612fe88184612f98565b905092915050565b5f5ffd5b5f73ffffffffffffffffffffffffffffffffffffffff82169050919050565b5f61301d82612ff4565b9050919050565b61302d81613013565b8114613037575f5ffd5b50565b5f8135905061304881613024565b92915050565b5f819050919050565b6130608161304e565b811461306a575f5ffd5b50565b5f8135905061307b81613057565b92915050565b5f5f6040838503121561309757613096612ff0565b5b5f6130a48582860161303a565b92505060206130b58582860161306d565b9150509250929050565b5f8115159050919050565b6130d3816130bf565b82525050565b5f6020820190506130ec5f8301846130ca565b92915050565b6130fb8161304e565b82525050565b5f6020820190506131145f8301846130f2565b92915050565b5f5f5f6060848603121561313157613130612ff0565b5b5f61313e8682870161303a565b935050602061314f8682870161303a565b92505060406131608682870161306d565b9150509250925092565b5f60ff82169050919050565b61317f8161316a565b82525050565b5f6020820190506131985f830184613176565b92915050565b5f819050919050565b6131b08161319e565b82525050565b5f6020820190506131c95f8301846131a7565b92915050565b5f602082840312156131e4576131e3612ff0565b5b5f6131f18482850161303a565b91505092915050565b61320381613013565b82525050565b5f60208201905061321c5f8301846131fa565b92915050565b5f63ffffffff82169050919050565b61323a81613222565b82525050565b5f6020820190506132535f830184613231565b92915050565b5f7fff0000000000000000000000000000000000000000000000000000000000000082169050919050565b61328d81613259565b82525050565b5f81519050919050565b5f82825260208201905092915050565b5f819050602082019050919050565b6132c58161304e565b82525050565b5f6132d683836132bc565b60208301905092915050565b5f602082019050919050565b5f6132f882613293565b613302818561329d565b935061330d836132ad565b805f5b8381101561333d57815161332488826132cb565b975061332f836132e2565b925050600181019050613310565b5085935050505092915050565b5f60e08201905061335d5f83018a613284565b818103602083015261336f8189612f98565b905081810360408301526133838188612f98565b905061339260608301876130f2565b61339f60808301866131fa565b6133ac60a08301856131a7565b81810360c08301526133be81846132ee565b905098975050505050505050565b5f602082840312156133e1576133e0612ff0565b5b5f6133ee8482850161306d565b91505092915050565b5f65ffffffffffff82169050919050565b613411816133f7565b82525050565b5f60208201905061342a5f830184613408565b92915050565b6134398161316a565b8114613443575f5ffd5b50565b5f8135905061345481613430565b92915050565b6134638161319e565b811461346d575f5ffd5b50565b5f8135905061347e8161345a565b92915050565b5f5f5f5f5f5f60c0878903121561349e5761349d612ff0565b5b5f6134ab89828a0161303a565b96505060206134bc89828a0161306d565b95505060406134cd89828a0161306d565b94505060606134de89828a01613446565b93505060806134ef89828a01613470565b92505060a061350089828a01613470565b9150509295509295509295565b5f5f5f5f5f5f5f60e0888a03121561352857613527612ff0565b5b5f6135358a828b0161303a565b97505060206135468a828b0161303a565b96505060406135578a828b0161306d565b95505060606135688a828b0161306d565b94505060806135798a828b01613446565b93505060a061358a8a828b01613470565b92505060c061359b8a828b01613470565b91505092959891949750929550565b5f5f604083850312156135c0576135bf612ff0565b5b5f6135cd8582860161303a565b92505060206135de8582860161303a565b9150509250929050565b6135f181613222565b81146135fb575f5ffd5b50565b5f8135905061360c816135e8565b92915050565b5f5f6040838503121561362857613627612ff0565b5b5f6136358582860161303a565b9250506020613646858286016135fe565b9150509250929050565b61365981613222565b82525050565b5f7bffffffffffffffffffffffffffffffffffffffffffffffffffffffff82169050919050565b61368f8161365f565b82525050565b604082015f8201516136a95f850182613650565b5060208201516136bc6020850182613686565b50505050565b5f6040820190506136d55f830184613695565b92915050565b7f4e487b71000000000000000000000000000000000000000000000000000000005f52602260045260245ffd5b5f600282049050600182168061371f57607f821691505b602082108103613732576137316136db565b5b50919050565b7f4e487b71000000000000000000000000000000000000000000000000000000005f52601160045260245ffd5b5f61376f8261304e565b915061377a8361304e565b925082820190508082111561379257613791613738565b5b92915050565b7f4552433230566f7465733a20667574757265206c6f6f6b7570000000000000005f82015250565b5f6137cc601983612f6a565b91506137d782613798565b602082019050919050565b5f6020820190508181035f8301526137f9816137c0565b9050919050565b7f4552433230566f7465733a2062726f6b656e20636c6f636b206d6f64650000005f82015250565b5f613834601d83612f6a565b915061383f82613800565b602082019050919050565b5f6020820190508181035f83015261386181613828565b9050919050565b7f4e487b71000000000000000000000000000000000000000000000000000000005f52604160045260245ffd5b7f4e487b71000000000000000000000000000000000000000000000000000000005f52603260045260245ffd5b7f45524332303a2064656372656173656420616c6c6f77616e63652062656c6f775f8201527f207a65726f000000000000000000000000000000000000000000000000000000602082015250565b5f61391c602583612f6a565b9150613927826138c2565b604082019050919050565b5f6020820190508181035f83015261394981613910565b9050919050565b7f4552433230566f7465733a207369676e617475726520657870697265640000005f82015250565b5f613984601d83612f6a565b915061398f82613950565b602082019050919050565b5f6020820190508181035f8301526139b181613978565b9050919050565b5f6080820190506139cb5f8301876131a7565b6139d860208301866131fa565b6139e560408301856130f2565b6139f260608301846130f2565b95945050505050565b7f4552433230566f7465733a20696e76616c6964206e6f6e6365000000000000005f82015250565b5f613a2f601983612f6a565b9150613a3a826139fb565b602082019050919050565b5f6020820190508181035f830152613a5c81613a23565b9050919050565b7f45524332305065726d69743a206578706972656420646561646c696e650000005f82015250565b5f613a97601d83612f6a565b9150613aa282613a63565b602082019050919050565b5f6020820190508181035f830152613ac481613a8b565b9050919050565b5f60c082019050613ade5f8301896131a7565b613aeb60208301886131fa565b613af860408301876131fa565b613b0560608301866130f2565b613b1260808301856130f2565b613b1f60a08301846130f2565b979650505050505050565b7f45524332305065726d69743a20696e76616c6964207369676e617475726500005f82015250565b5f613b5e601e83612f6a565b9150613b6982613b2a565b602082019050919050565b5f6020820190508181035f830152613b8b81613b52565b9050919050565b7f496e76616c696420636173696e6f2061646472657373000000000000000000005f82015250565b5f613bc6601683612f6a565b9150613bd182613b92565b602082019050919050565b5f6020820190508181035f830152613bf381613bba565b9050919050565b7f4f776e61626c653a206e6577206f776e657220697320746865207a65726f20615f8201527f6464726573730000000000000000000000000000000000000000000000000000602082015250565b5f613c54602683612f6a565b9150613c5f82613bfa565b604082019050919050565b5f6020820190508181035f830152613c8181613c48565b9050919050565b7f45524332303a20617070726f76652066726f6d20746865207a65726f206164645f8201527f7265737300000000000000000000000000000000000000000000000000000000602082015250565b5f613ce2602483612f6a565b9150613ced82613c88565b604082019050919050565b5f6020820190508181035f830152613d0f81613cd6565b9050919050565b7f45524332303a20617070726f766520746f20746865207a65726f2061646472655f8201527f7373000000000000000000000000000000000000000000000000000000000000602082015250565b5f613d70602283612f6a565b9150613d7b82613d16565b604082019050919050565b5f6020820190508181035f830152613d9d81613d64565b9050919050565b7f45524332303a20696e73756666696369656e7420616c6c6f77616e63650000005f82015250565b5f613dd8601d83612f6a565b9150613de382613da4565b602082019050919050565b5f6020820190508181035f830152613e0581613dcc565b9050919050565b7f45524332303a207472616e736665722066726f6d20746865207a65726f2061645f8201527f6472657373000000000000000000000000000000000000000000000000000000602082015250565b5f613e66602583612f6a565b9150613e7182613e0c565b604082019050919050565b5f6020820190508181035f830152613e9381613e5a565b9050919050565b7f45524332303a207472616e7366657220746f20746865207a65726f20616464725f8201527f6573730000000000000000000000000000000000000000000000000000000000602082015250565b5f613ef4602383612f6a565b9150613eff82613e9a565b604082019050919050565b5f6020820190508181035f830152613f2181613ee8565b9050919050565b7f45524332303a207472616e7366657220616d6f756e74206578636565647320625f8201527f616c616e63650000000000000000000000000000000000000000000000000000602082015250565b5f613f82602683612f6a565b9150613f8d82613f28565b604082019050919050565b5f6020820190508181035f830152613faf81613f76565b9050919050565b5f613fc08261304e565b9150613fcb8361304e565b9250828203905081811115613fe357613fe2613738565b5b92915050565b7f53616665436173743a2076616c756520646f65736e27742066697420696e20335f8201527f3220626974730000000000000000000000000000000000000000000000000000602082015250565b5f614043602683612f6a565b915061404e82613fe9565b604082019050919050565b5f6020820190508181035f83015261407081614037565b9050919050565b7f4f776e61626c653a2063616c6c6572206973206e6f7420746865206f776e65725f82015250565b5f6140ab602083612f6a565b91506140b682614077565b602082019050919050565b5f6020820190508181035f8301526140d88161409f565b9050919050565b7f53616665436173743a2076616c756520646f65736e27742066697420696e20345f8201527f3820626974730000000000000000000000000000000000000000000000000000602082015250565b5f614139602683612f6a565b9150614144826140df565b604082019050919050565b5f6020820190508181035f8301526141668161412d565b9050919050565b5f60a0820190506141805f8301886131a7565b61418d60208301876131a7565b61419a60408301866131a7565b6141a760608301856130f2565b6141b460808301846131fa565b9695505050505050565b7f4e487b71000000000000000000000000000000000000000000000000000000005f52601260045260245ffd5b5f6141f58261304e565b91506142008361304e565b9250826142105761420f6141be565b5b828204905092915050565b7f4552433230566f7465733a20746f74616c20737570706c79207269736b73206f5f8201527f766572666c6f77696e6720766f74657300000000000000000000000000000000602082015250565b5f614275603083612f6a565b91506142808261421b565b604082019050919050565b5f6020820190508181035f8301526142a281614269565b9050919050565b5f6040820190506142bc5f8301856130f2565b6142c960208301846130f2565b9392505050565b5f6080820190506142e35f8301876131a7565b6142f06020830186613176565b6142fd60408301856131a7565b61430a60608301846131a7565b95945050505050565b7f4e487b71000000000000000000000000000000000000000000000000000000005f52602160045260245ffd5b7f45434453413a20696e76616c6964207369676e617475726500000000000000005f82015250565b5f614374601883612f6a565b915061437f82614340565b602082019050919050565b5f6020820190508181035f8301526143a181614368565b9050919050565b7f45434453413a20696e76616c6964207369676e6174757265206c656e677468005f82015250565b5f6143dc601f83612f6a565b91506143e7826143a8565b602082019050919050565b5f6020820190508181035f830152614409816143d0565b9050919050565b7f45434453413a20696e76616c6964207369676e6174757265202773272076616c5f8201527f7565000000000000000000000000000000000000000000000000000000000000602082015250565b5f61446a602283612f6a565b915061447582614410565b604082019050919050565b5f6020820190508181035f8301526144978161445e565b9050919050565b7f45524332303a206d696e7420746f20746865207a65726f2061646472657373005f82015250565b5f6144d2601f83612f6a565b91506144dd8261449e565b602082019050919050565b5f6020820190508181035f8301526144ff816144c6565b9050919050565b7f45524332303a206275726e2066726f6d20746865207a65726f206164647265735f8201527f7300000000000000000000000000000000000000000000000000000000000000602082015250565b5f614560602183612f6a565b915061456b82614506565b604082019050919050565b5f6020820190508181035f83015261458d81614554565b9050919050565b7f45524332303a206275726e20616d6f756e7420657863656564732062616c616e5f8201527f6365000000000000000000000000000000000000000000000000000000000000602082015250565b5f6145ee602283612f6a565b91506145f982614594565b604082019050919050565b5f6020820190508181035f83015261461b816145e2565b9050919050565b7f53616665436173743a2076616c756520646f65736e27742066697420696e20325f8201527f3234206269747300000000000000000000000000000000000000000000000000602082015250565b5f61467c602783612f6a565b915061468782614622565b604082019050919050565b5f6020820190508181035f8301526146a981614670565b905091905056fea264697066735822122052e33b15da196f9452cb55754045cd10fcbd10ac3d7e8ebb4746c3038d56cd9c64736f6c634300081e0033","linkReferences":{}},"methodIdentifiers":{"CLOCK_MODE()":"4bf5d7e9","DOMAIN_SEPARATOR()":"3644e515","allowance(address,address)":"dd62ed3e","approve(address,uint256)":"095ea7b3","balanceOf(address)":"70a08231","burnFrom(address,uint256)":"79cc6790","casino()":"9403e8dd","checkpoints(address,uint32)":"f1127ed8","clock()":"91ddadf4","decimals()":"313ce567","decreaseAllowance(address,uint256)":"a457c2d7","delegate(address)":"5c19a95c","delegateBySig(address,uint256,uint256,uint8,bytes32,bytes32)":"c3cda520","delegates(address)":"587cde1e","eip712Domain()":"84b0196e","getPastTotalSupply(uint256)":"8e539e8c","getPastVotes(address,uint256)":"3a46b1a8","getVotes(address)":"9ab24eb0","increaseAllowance(address,uint256)":"39509351","mint(address,uint256)":"40c10f19","name()":"06fdde03","nonces(address)":"7ecebe00","numCheckpoints(address)":"6fcfff45","owner()":"8da5cb5b","permit(address,address,uint256,uint256,uint8,bytes32,bytes32)":"d505accf","renounceOwnership()":"715018a6","setCasino(address)":"d7b9cc24","symbol()":"95d89b41","totalSupply()":"18160ddd","transfer(address,uint256)":"a9059cbb","transferFrom(address,address,uint256)":"23b872dd","transferOwnership(address)":"f2fde38b"},"id":26}